:020000040800F2
:100000006882002045010008D53B0008F92C000853
:10001000C5390008A11000088D4C00080000000040
:10002000000000000000000000000000674200081F
:100030002925000800000000693C0008EB43000887
:100040005F0100085F0100085F0100085F01000810
:100050005F0100085F0100085F0100085F01000800
:100060005F0100085F0100085F0100085F010008F0
:100070005F0100085F0100085F0100085F010008E0
:100080005F0100085F0100085F0100085F010008D0
:100090005F0100085F0100085F0100085F010008C0
:1000A0005F010008DD4400085F0100085F010008EF
:1000B0005F0100085F0100085F0100085F010008A0
:1000C0005F0100085F0100085F0100085F01000890
:1000D0005F010008C54700085F0100085F010008D4
:1000E0005F0100085F0100085F0100085F01000870
:1000F0005F0100085F0100085F0100085F01000860
:100100005F0100085F0100085F0100085F0100084F
:100110005F0100085F0100085F0100085F0100083F
:100120005F0100085F0100085F0100085F0100082F
:10013000DFF80CD000F050FC00480047D957000809
:10014000688200200648804706480047FEE7FEE731
:10015000FEE7FEE7FEE7FEE7FEE7FEE7FEE7FEE777
:10016000ED43000831010008D2B201E000F8012B94
:10017000491EFBD270470022F6E710B513460A4627
:1001800004461946FFF7F0FF204610BD421E12F844
:10019000013F002BFBD111F8013B02F8013B002B82
:1001A000F9D17047421C10F8011B0029FBD1801ABD
:1001B0007047F0B480EA0102D40F4200B2EB410F65
:1001C00002D20246084611464A0042D0C30DDDB2B3
:1001D000C1F3C752AD1A202D35DAC1F3160141F42F
:1001E000000204B15242C5F1200602FA06F12A418A
:1001F0001044B3EBD05F23D0C4B1012DA0EBC350AA
:1002000009DCF0BC4FF0004202EAC352DBB200F559
:10021000000000F010BA400000F1807000EBC35005
:10022000A0F1807040EAD170490009E0490841EA34
:10023000C071A0EBC35000F50000400800EBC350B4
:10024000F0BC00F0EFB96142012202EB4101001B5A
:10025000F6E7F0BC704781F00041AAE780F000406B
:10026000A7E780EA010210B502F00043400022D067
:100270004A001FD0010E01EB1261C0F35600C2F319
:10028000560240F4000042F40002A0FB02200004E9
:100290007F39140400D0401C50EA124001D44000C1
:1002A000491EC2B20C0604EBD010401C4008802A44
:1002B00002D003E0002010BD20F00100002900DA88
:1002C0000020184310BD30B480EA010202F000455E
:1002D00030F0004221F0004013D090B1C30DD40D96
:1002E000C2F31601C0F31600E41A41F4000140F411
:1002F00000027D34914201D3641C00E04900002CCF
:1003000002DA30BC002070474FF400000023914215
:1003100001D3891A034340084FEA4101F7D151B193
:10032000914202D14FF0004105E002D24FF00101AD
:1003300001E06FF0010103EBC450284430BC00F031
:1003400071B92DE9FE4F81EA030404F0004421F065
:10035000004100944FF0000B23F0004350EA0104E9
:100360005ED052EA03045BD0C3F30A54C1F30A55CA
:100370002C44A4F2F3340194A0FB0254C1F3130102
:1003800041F48011C3F3130343F4801301FB0244CF
:1003900000FB034E840A970A44EA815447EA8357D4
:1003A000A4FB076802958D0A05FB07854FEA932C8D
:1003B00004FB0C542705029D4FEA065847EA1637FE
:1003C000B5EB08056EEB070C870E920E47EA811716
:1003D00042EA8312A7FB0201B6EB0B0164EB0004B7
:1003E0002B0D43EA0C335E1844EB1C50DA465146A1
:1003F000E7FB0201C5F313044FEA0B3343EA14533E
:100400004FEA0432019C43EA0603A4F10C0402946F
:10041000009CCDE900B400F04BF903B0BDE8F08FCB
:1004200000200146F9E796230022114600F003B9A7
:100430000EB540F2334102910021CDE900110A4688
:100440000B4600F035F903B000BD20F00040C10DAF
:10045000C0F3160040F400007F2901DA0020704745
:10046000962903DCC1F19601C8407047963988404F
:10047000704700F0004230F000400AD0C10D01F595
:100480006071C0F3160042EA0151C20840071143EF
:10049000704700200146704701F0004330B421F05E
:1004A000004150EA010206D00A0DA2F56072C1F3C4
:1004B0001301002A02DC30BC00207047440F44EADC
:1004C000C104C100E01830BC00EBC25000F0AAB873
:1004D000002801DBC0F10040002901DBC1F100412F
:1004E00081427047002801DBC0F10040002901DB98
:1004F000C1F100418842704730B50B4601460020EB
:100500002022012409E021FA02F59D4205D303FAD5
:1005100002F5491B04FA02F52844151EA2F1010256
:10052000F1DC30BD2DE9F05F0546002092469B4688
:1005300088460646814640241BE0284641464746F9
:10054000224600F06AFA53465A46C01A914110D327
:1005500011461846224600F051FA2D1A67EB0108A1
:100560004F4622460120002100F048FA17EB00090F
:100570004E41201EA4F10104DFDC484631462A46E4
:100580004346BDE8F09F00000FB4002300B589B0DA
:100590000CA900910B996FF00042CB601E4B0693A3
:1005A0001E4B07930423CDE901321D4A08920246EF
:1005B0006B46002000F0F6FA09B05DF814FB70B548
:1005C00086B006464FF0FF300091CDE901010020D2
:1005D00015460C4604903246694604A8FFF7D4FF3E
:1005E00002460498211825B108B1084600E02046CB
:1005F0002860049800280DD0002A02DD0098884267
:1006000008D0081B0094CDE901043246694604A8CD
:10061000FFF7BAFF06B070BDDD0D0008FB0D000846
:10062000690A00080029A8BF7047401C490008BF9C
:1006300020F00100704710B4B0FA80FC00FA0CF012
:1006400050EA010404BF10BC704749B1CCF120044A
:1006500021FA04F411FA0CF118BF012121430843D7
:10066000A3EB0C01CB1D4FEA00614FEA102042BF03
:10067000002010BC704700EBC35010440029A4BFF9
:1006800010BC7047401C490008BF20F0010010BC9E
:10069000704710B5141E73F1000408DA401C41F1D4
:1006A000000192185B411A4301D120F0010010BDF6
:1006B0002DE9F04D92469B4611B1B1FA81F202E06C
:1006C000B0FA80F22032904600F098F904460F46C6
:1006D00040EA0A0041EA0B0153465A46084313D048
:1006E000114653EA010019D0C8F14002504600F00B
:1006F00094F905460E4650465946424600F07EF9AA
:10070000084305D0012004E020463946BDE8F08DBD
:100710000020054346EAE0762C4337430A986305F8
:10072000E40AA0EB08000022FD0A44EA47540A301C
:1007300002D500200146E9E7010510196941DDE90C
:10074000084500196941BDE8F04DA2E72DE9FE4FCB
:10075000804681EA0300C00F0C46009021F0004162
:1007600023F00045B8EB0200A94105D240462146DE
:1007700090461C460B46024623F00040104347D0EB
:10078000270DC7F30A00C3F30A510290401A0190E3
:1007900040286BDAC3F3130040F4801B00989246A4
:1007A00020B10023D2EB030A63EB0B0B01985946EF
:1007B000C0F14002504600F021F906460D46504671
:1007C0005946019A00F039F910EB08006141002404
:1007D00087EA115284EAE7731A4340D0009A62B361
:1007E000019A012A4FEA075215DC001B61EB020156
:1007F0004FF0004202EA0752CDE90042001C41F5E9
:10080000801132462B46FFF753FF03B0BDE8F08F4F
:1008100040462146F9E7001B61EB0201001C41F54F
:10082000801300185B412018A2F5001747EB030165
:1008300040EAD570B6196D4111E06D084FEA3606F1
:1008400045EAC0754FEA0752001B61EB0201001C2C
:1008500041F5801149084FEA3000001951413246F4
:100860002B4603B0BDE8F04FFFF713BF00980122FD
:1008700040000023D0EB020263EBE07300982146B6
:100880004FEAE074B8EB000061EB0401E9E783F0A4
:1008900000435BE781F0004158E72DE9F04D81EA24
:1008A000030404F0004B21F0004514464FF0000A09
:1008B00023F0004150EA050220D054EA01021DD085
:1008C000C5F30A570246C5F31303C1F31300C1F37E
:1008D0000A5640F4801543F48013A7EB0608101B5A
:1008E000D64608F2FD3873EB050002D308F1010883
:1008F00001E092185B41B8F1000F03DA00200146D5
:10090000BDE8F08D00204FF48011064684460EE0CD
:10091000171B73EB050705D3121B63EB0503064397
:100920004CEA010C49084FEA300092185B4150EA4A
:100930000107EDD152EA030012D082EA040083EAF3
:100940000501084305D0101BAB4106D2012200234C
:1009500006E000224FF0004302E06FF00102531066
:100960001AEB06004CEB085110EB0A0041EB0B01AF
:10097000BDE8F04DFFF78DBEC1F30A52C1F313017C
:1009800040F2FF3341F480119A4202DA002001461E
:10099000704740F233439A42A2F2334202DC5242A1
:1009A00000F03BB800F02AB830B5041E71F1000425
:1009B00004DB4FF00044404264EB0101141E73F16C
:1009C000000405DB1C464FF00043524263EB040376
:1009D000994208BF904230BD064C074D06E0E068E2
:1009E00040F0010394E8070098471034AC42F6D376
:1009F000FFF7A2FB005B0008205B0008202A04DB55
:100A0000203A00FA02F1002070479140C2F1200321
:100A100020FA03F3194390407047202A04DB203A60
:100A200021FA02F00021704721FA02F3D040C2F10E
:100A300020029140084319467047202A06DBCB1755
:100A4000203A41FA02F043EAE07306E041FA02F389
:100A5000D040C2F12002914008431946704700007F
:100A600000487047FC5A000810B50446FFF7F8FF2D
:100A70000068005D00F0010010BD00002DE9FF4F8F
:100A8000087883B09946FF2805D0491C2D2804D04A
:100A90000024002008E000200BE00124F9E700EB2F
:100AA000800003EB4000491C0B78FF2BF7D104B109
:100AB000404200230293147819461D462D2C01D084
:100AC0002B2C04D1521C2D2C13D000240294AA46A6
:100AD0001478FF2C0FD00A25A3FB057801FB0581B4
:100AE0004FF0000C03FB0C11521CE3194AEB0101FF
:100AF000EEE70124EAE7814453EA010002D019F548
:100B0000C87F06DA03980021C0E9001107B0BDE8EC
:100B1000F08F0025AE4E2F46DFF8B882184600F061
:100B20007DF9CDE90001B9F1000002DAC9F1000454
:100B300000E004460023A74A1AEB030B42EB045AD9
:100B400012E0E00707D02A46334638464146FFF711
:100B5000F8FB074688462A46334610461946FFF7F3
:100B6000F0FB05460E466410002CEAD1DDE90001D9
:100B7000B9F1000F5A46534606DAFFF78EFE3A46A1
:100B80004346FFF78AFE05E0FFF7DBFB3A464346A4
:100B9000FFF7D7FB029A0AB181F00041039AC2E93C
:100BA0000001B3E72DE9FF4F1F468DB0D7E901469D
:100BB0004FF0FF382E2045464FF000090B90B969E1
:100BC0006D1C0E988847396A824688470028F6D1FE
:100BD000BAF1FF3F0AD024F4D064002E11DDBAF13F
:100BE0002B0F08D0BAF12D0F0BD102E0404611B007
:100BF0008DE744F48064B9696D1C0E98884782467D
:100C0000761E6946600501D52D2000E02B208DF869
:100C1000000001F1010B0DF1200809E0B9696D1C1C
:100C20000E98884782460F9844F40074761E05603B
:100C3000002E02DDBAF1300FF0D00B998A453ED17B
:100C400044F0800406E00F99681CA9F1010944F4FE
:100C500000740860B9696D1C761E0E98884782463C
:100C60003028F0D02BE00B998A4505D1200603D41B
:100C700044F08004761E18E0504604F025F908B3CD
:100C80000DF11301761E44F400748B4508D2AAF1CD
:100C900030000BF8010B200607D5A9F1010003E095
:100CA000200602D409F101008146A00502D50F9962
:100CB000681C0860B9696D1C0E9888478246002E32
:100CC000D1DC53E0002E51DDBAF1650F02D0BAF14C
:100CD000450F4BD1A00549D5B9696D1C24F440746A
:100CE000761E0E9888478246002E0CDD2B2804D0F5
:100CF000BAF12D0F07D144F48074B9696D1C0E98B8
:100D000088478246761EE00501D52D2100E02B2183
:100D100008F8011BCDF82C8021E00DF12901761E89
:100D200044F4007488450CD2AAF1300010F0FF00A2
:100D300088F8000002D10B99884509D908F101080B
:100D400006E0E00501D5244801E042F20F7081463B
:100D5000B9696D1C0E98884782460F980560002E71
:100D600004DD504604F0B0F80028D6D1F9690E9899
:100D70008847FF208BF8000088F8000000200690CC
:100D800007904B466A4608A906A8FFF777FEA0051C
:100D900002D46FF001002AE714F0240F0AD0E00714
:100DA00014D1DDE906123868031D3B600068C0E914
:100DB00000120BE0DDE90601FFF76EFB0146E007DC
:100DC00004D13868021D3A600068016028460EE7C9
:100DD000000014400000F03FF1D8FFFF426842B12C
:100DE000016811F8013B23B1521EC0E900121846F8
:100DF00070470121C160881E704742685AB1C368BC
:100E0000016843B983688B4205D0491E521CC0E972
:100E10000012002070474FF0FF3070470EB540F2CF
:100E2000334202920022CDE900221346FFF740FC34
:100E300003B000BDF8B504460E4600200090012C1A
:100E400003D118208DF800000AE0022C03D11920EC
:100E50008DF8000004E0032C02D11F208DF8000063
:100E60009DF8000005043543280C8DF80000280A81
:100E70008DF80100E8B28DF802000321684600F009
:100E800073F803A002F0ACFD00F04CF8F8BD0000D0
:100E900041443536363320535049207772697465A2
:100EA000642E000010B500210320FFF7C3FF10BD22
:100EB00010B500210320FFF7BDFF10BD2DE9F04163
:100EC00005460C464FF08B412046FFF7FCF9804663
:100ED0000849FFF7C6F90746FFF7B7FA86B2314669
:100EE00005A002F07DFD31462846FFF7A3FFBDE8CF
:100EF000F081000000FF7F4725640D0A000000001C
:100F000010B504462CB94FF40061054801F09BFD73
:100F100004E04FF40061024801F097FD10BD0000AD
:100F20000008014010B500240020FFF7E9FF00BFD2
:100F300001E0601C84B2B4F57A7FFADB0120FFF790
:100F4000DFFF10BD10B5FFF7B3FF02A002F048FDB0
:100F500010BD000041443536363320526573657448
:100F6000204F4B0D0A00000070B504460D462A467E
:100F70002146042003F0FCF870BD00002DE9FE437B
:100F800004460025A946A07A28284DD1207B2C288C
:100F90004AD106E005F10D00205C0DF80500681C43
:100FA000C5B205F10D00205C292801D0082DF1DB28
:100FB000684604F02DFB0746FFF76EFA064600214F
:100FC0003046FFF785FA04D31A493046FFF78AFA0C
:100FD0000BD219A002F004FD3046FFF74AFA07468B
:100FE0003A460B461BA002F0FBFCE07A312802D106
:100FF0004FF0010910E0E07A322802D14FF00209E7
:101000000AE0E07A332802D14FF0030904E013A08C
:1010100002F0E6FCBDE8FE8331464846FFF74EFF8E
:1010200014A002F0DDFC02E016A002F0D9FC00BF23
:10103000F0E7000000409C454144353636332053EC
:1010400065742056616C7565204572726F720D0A69
:101050000000000025660D0A0000000041443536FE
:10106000363320536574204348204572726F720DE9
:101070000A00000041443536363320536574204F52
:101080004B0D0A00414435363633205365742046F3
:101090006F726D6174204572726F720D0A000000EC
:1010A00000BFFEE72DE9F04FC9B006460F46904657
:1010B0004FF4807109A8FFF75EF8002005900690B4
:1010C00007900890019002900390049083460025B9
:1010D000009009A9304603F047F90DF12409B24602
:1010E00009A9FA4804F0CEFB10B903F0D1FDF1E3F1
:1010F00009A9F74804F0C6FB0028F8D009A9F5486B
:1011000004F0C0FB10B901F0F9FDF0E7062209A9CF
:10111000F14804F0F2FB00285CD1002448E009A863
:10112000005D3D2843D1601E09A9085C30380028C5
:1011300021D4601E085C303809281CDCA01E085C25
:101140003038002817D4A01E085C3038092812DC7B
:10115000601E095CA01E09AA105C30380A2202FB3E
:101160000010303805A9485509A9601C085C3038C2
:1011700001A9485519E0601E09A9085C303800280B
:1011800010D4601E085C303809280BDC601E085C37
:10119000303805A9485509A9601C085C303801A9F8
:1011A000485502E0CDA002F01BFC681CC5B2641CCF
:1011B00009A8FEF7F7FF801EA042B0D80024D8E3AC
:1011C00005A810F804B001A8005D0090BBF1510F14
:1011D00074D200E0D4E3DFE80BF07129323B444DD8
:1011E000565F68727B848D969FA8F2FBEFEEEDEC64
:1011F000EBEAE9E8E7E6E5E4E3E2E1E0DFDEDDDCB7
:10120000DBDAD9D8D7D6D5D4D3D2D1D0CFCECDCCA6
:10121000CBCAC9C8C7C6C5C4C3C2C1C0BFBEBDBC96
:10122000BBBAB9B8B7B6B5B4B3B2B10001210220A8
:10123000009A01F033F8AEA002F0D2FB97E302214E
:101240000846009A01F02AF8ABA002F0C9FB8EE331
:1012500003210220009A01F021F8A9A002F0C0FBAE
:1012600085E304210220009A01F018F8A6A002F0FC
:10127000B7FB7CE305210220009A01F00FF8A4A03F
:1012800002F0AEFB73E306210220009A01F006F89B
:10129000A1A002F0A5FB6AE307210220009A00F05A
:1012A000FDFF9FA002F09CFB61E308210220009A51
:1012B00000F0F4FF9CA002F093FB58E353E30921F4
:1012C0000220009A00F0EAFF99A002F089FB4EE3A9
:1012D0000A210220009A00F0E1FF97A002F080FBB3
:1012E00045E30B210220009A00F0D8FF94A002F001
:1012F00077FB3CE30C210220009A00F0CFFF92A084
:1013000002F06EFB33E30D210220009A00F0C6FFCD
:101310008FA002F065FB2AE30E210220009A00F064
:10132000BDFF8DA002F05CFB21E30F210220009A9B
:1013300000F0B4FF8AA002F053FB18E30AE300E3D5
:10134000F6E2ECE2E2E2D8E2CEE2C4E2B9E2AFE2F7
:10135000A5E29BE291E287E27DE273E269E25FE26D
:1013600055E24BE241E237E22DE223E219E20FE2DD
:1013700005E2FBE1F1E1E7E1DDE1D3E1C9E1BFE154
:10138000B5E1ABE1A1E197E18DE183E179E16FE1C5
:1013900065E15BE151E147E13DE133E129E11FE135
:1013A0008BE081E077E06DE063E059E04FE045E0FD
:1013B0003BE031E027E01DE013E009E0FFE710210A
:1013C0000220009A00F06AFF67A002F009FBCEE25B
:1013D00011210220009A00F061FF65A002F000FBDD
:1013E000C5E212210220009A00F058FF62A002F02C
:1013F000F7FABCE213210220009A00F04FFF60A030
:1014000002F0EEFAB3E214210220009A00F046FF47
:101410005DA002F0E5FAAAE215210220009A00F090
:101420003DFF5BA002F0DCFAA1E216210220009A47
:1014300000F034FF58A002F0D3FA98E217210220FE
:10144000009A00F02BFF56A002F0CAFA8FE2182192
:101450000220009A00F022FF53A002F0C1FA86E2B7
:1014600019210220009A00F019FF51A002F0B8FAE9
:101470007DE21A210220009A00F010FF4EA002F037
:10148000AFFA74E21B210220009A00F007FF4CA083
:1014900002F0A6FA6BE21C210220009A00F0FEFE88
:1014A00049A002F09DFA62E21D210220009A00F09C
:1014B000F5FE47A002F094FA59E21E210220009A9C
:1014C00000F0ECFE44A002F08BFA50E2AC590008A8
:1014D000BD590008B6590008E05900086572726FDE
:1014E0007220636F6D6D616E64210D0A0000000053
:1014F00062697431200000006269743220000000CB
:1015000062697433200000006269743420000000B6
:1015100062697435200000006269743620000000A2
:10152000626974372000000062697438200000008E
:101530006269743920000000626974313020000053
:101540006269743131200000626974313220000018
:101550006269743133200000626974313420000004
:1015600062697431352000006269743136200000F0
:1015700062697431372000006269743138200000DC
:1015800062697431392000006269743230200000D1
:1015900062697432312000006269743232200000C6
:1015A00062697432332000006269743234200000B2
:1015B000626974323520000062697432362000009E
:1015C000626974323720000062697432382000008A
:1015D000626974323920000062697433302000007F
:1015E0001F210220009A00F059FEF8A002F0F8F93D
:1015F000BDE120210220009A00F050FEF5A002F08B
:10160000EFF9B4E121210220009A00F047FEF3A097
:1016100002F0E6F9ABE122210220009A00F03EFE42
:10162000F0A002F0DDF9A2E123210220009A00F0EF
:1016300035FEEEA002F0D4F999E124210220009AAF
:1016400000F02CFEEBA002F0CBF990E12521022066
:10165000009A00F023FEE9A002F0C2F987E12621FA
:101660000220009A00F01AFEE6A002F0B9F97EE12D
:1016700027210220009A00F011FEE4A002F0B0F948
:1016800075E128210220009A00F008FEE1A002F096
:10169000A7F96CE129210220009A00F0FFFDDFA0EC
:1016A00002F09EF963E12A210220009A00F0F6FD83
:1016B000DCA002F095F95AE12B210220009A00F0FB
:1016C000EDFDDAA002F08CF951E12C210220009A04
:1016D00000F0E4FDD7A002F083F948E12D210220BB
:1016E000009A00F0DBFDD5A002F07AF93FE12E214F
:1016F0000220009A00F0D2FDD2A002F071F936E18A
:101700002F210220009A00F0C9FDD0A002F068F954
:101710002DE130210220009A00F0C0FDCDA002F0A2
:101720005FF924E131210220009A00F0B7FDCBA03F
:1017300002F056F91BE132210220009A00F0AEFDC2
:10174000C8A002F04DF912E133210220009A00F006
:10175000A5FDC6A002F044F909E134210220009A57
:1017600000F09CFDC3A002F03BF900E1352102200E
:10177000009A00F093FDC1A002F032F9F7E03621A3
:101780000220009A00F08AFDBEA002F029F9EEE0E6
:1017900037210220009A00F081FDBCA002F020F960
:1017A000E5E038210220009A00F078FDB9A002F0AF
:1017B00017F9DCE039210220009A00F06FFDB7A094
:1017C00002F00EF9D3E03A210220009A00F066FD03
:1017D000B4A002F005F9CAE03B210220009A00F013
:1017E0005DFDB2A002F0FCF8C1E03C210220009AAD
:1017F00000F054FDAFA002F0F3F8B8E03D21022064
:10180000009A00F04BFDADA002F0EAF8AFE03E21F7
:101810000220009A00F042FDAAA002F0E1F8A6E042
:101820003F210220009A00F039FDA8A002F0D8F86C
:101830009DE040210220009A00F030FDA5A002F0BA
:10184000CFF894E041210220009A00F027FDA3A0E8
:1018500002F0C6F88BE042210220009A00F01EFD43
:10186000A0A002F0BDF882E043210220009A00F01F
:1018700015FD9EA002F0B4F879E044210220009A00
:1018800000F00CFD9BA002F0ABF870E045210220B7
:10189000009A00F003FD99A002F0A2F867E046214B
:1018A0000220009A00F0FAFC96A002F099F85EE09F
:1018B00047210220009A00F0F1FC94A002F090F879
:1018C00055E048210220009A00F0E8FC91A002F0C7
:1018D00087F84CE0EDE149210220009A00F0DEFC9F
:1018E0008EA002F07DF842E04A210220009A00F02A
:1018F000D5FC8CA002F074F839E04B210220009A4C
:1019000000F0CCFC89A002F06BF830E04C21022002
:10191000009A00F0C3FC87A002F062F827E04D2196
:101920000220009A00F0BAFC84A002F059F81EE0F0
:101930004E210220009A00F0B1FC82A002F050F883
:1019400015E04F210220009A00F0A8FC7FA002F0D1
:1019500047F80CE050210220009A00F09FFC7DA087
:1019600002F03EF803E07DA002F03AF800BF00BFAD
:10197000641CAC42FFF624AC7DA002F031F898E183
:101980000B2209A97C4803F0B8FF50B94FF400714D
:101990007A4801F058F800F05AFC79A002F020F8DB
:1019A00087E10C2209A97A4803F0A7FF18B930464D
:1019B00000F09AFE7DE10B2209A9764803F09DFF15
:1019C00018B9304600F0B2FD73E1E5E062697433A6
:1019D0003120000062697433322000006269743380
:1019E000332000006269743334200000626974336C
:1019F0003520000062697433362000006269743358
:101A00003720000062697433382000006269743343
:101A10003920000062697434302000006269743437
:101A2000312000006269743432200000626974342D
:101A30003320000062697434342000006269743419
:101A40003520000062697434362000006269743405
:101A500037200000626974343820000062697434F1
:101A600039200000626974353020000062697435E5
:101A700031200000626974353220000062697435DB
:101A800033200000626974353420000062697435C7
:101A900035200000626974353620000062697435B3
:101AA000372000006269743538200000626974359F
:101AB0003920000062697436302000006269743693
:101AC0003120000062697436322000006269743689
:101AD0003320000062697436342000006269743675
:101AE0003520000062697436362000006269743661
:101AF000372000006269743638200000626974364D
:101B00003920000062697437302000006269743740
:101B10003120000062697437322000006269743736
:101B20003320000062697437342000006269743722
:101B3000352000006269743736200000626974370E
:101B400037200000626974373820000062697437FA
:101B5000392000006269743830200000696F206EFF
:101B6000756D206572726F722031210D0A000000C0
:101B70004F4B0D0A00000000F3590008001001400F
:101B8000494F205265736574204F4B0D0A000000C9
:101B9000705900087D590008112209A9514803F025
:101BA000ACFE18B9304600F0A5F982E0102209A970
:101BB0004D4803F0A2FE18B9304600F0C3F878E0B3
:101BC0000E2209A9494803F098FE18B9304602F0E0
:101BD00055FC6EE0092209A9454803F08EFE18B9AC
:101BE000304601F01BFE64E0082209A9414803F0D9
:101BF00084FE18B9304601F03FFD5AE00F2209A9D2
:101C00003D4803F07AFE18B9304601F0A3FC50E0DD
:101C1000092209A9394803F070FE40B94FF4007158
:101C2000374800F012FF37A001F0DAFE41E00A2247
:101C300009A9374803F061FE40B94FF400713048FC
:101C400000F001FF33A001F0CBFE32E00A2209A927
:101C5000344803F052FE18B93046FFF78FF928E0F8
:101C60000C2209A9304803F048FE10B9FFF76AF9C1
:101C70001FE00E2209A92D4803F03FFE18B9304697
:101C800002F00EFD15E00C2209A9294803F035FEEB
:101C900010B900F047FF0CE00A2209A9254803F01B
:101CA0002CFE10B900F014FF03E0234923A001F03B
:101CB00097FE234921A001F093FE002009E00021B6
:101CC00089F800108AF8001009F101090AF1010AE7
:101CD000401CB842F3DB002088F8000049B0BDE8A2
:101CE000F08F0000895900089B5900084D5A0008E0
:101CF0004D5900085759000860590008025A000859
:101D0000001001404D5035303438204F4E0D0A0040
:101D10000E5A00084D5035303438204F46460D0AD3
:101D200000000000335900083E59000824590008FB
:101D30005C5A00086B5A0008C85900082573000057
:101D4000C05900082DE9F04F87B0044600200690E6
:101D5000002602900390049005900190207C282892
:101D60007CD1607D2C2879D1A07E2C2876D1207F53
:101D70002C2873D1257D312D01D0322D03D1A5F131
:101D80003000C5B205E038A001F02AFE07B0BDE87A
:101D9000F08F617E207E02F004FB8346E07E3038C7
:101DA000C6B2012E07D194F82010E07F02F0F9FAB4
:101DB0008DF8180014E0022E0ED11F3461782078BF
:101DC00002F0EFFA8DF81800A17960791F3C02F05B
:101DD000E8FA8DF8190003E029A001F001FED5E72B
:101DE000012D0CD101A806AB0422314600905846C3
:101DF00001F085F880B12CA001F0F2FDC6E701A842
:101E000006AB042231460090584601F054FA18B14E
:101E100025A001F0E5FDB9E7002005E001A9095C76
:101E200002AA42F82010401C0428F7DB02980006A2
:101E3000039900EB0140049900EB0120059900EBA8
:101E4000010AD1464846FEF714FB07463A460B46C0
:101E500000E003E01AA001F0C3FD02E01EA001F0C3
:101E6000BFFD00BF92E700004D75737420426520EE
:101E700049324331204F7220493243320D0A00006B
:101E80004D7573742042652031283162797465295B
:101E9000204F7220322832627974657329204164A0
:101EA00064726573730D0A0043616C6962726174D8
:101EB000696F6E2052656164204661696C0D0A008D
:101EC000466C6F6174204461746120526561643AAC
:101ED00025660D0A00000000656570726F6D207741
:101EE0007269746520666F726D6174206572726FBD
:101EF000720D0A002DE9F04FA1B004460020209099
:101F00000027642107A8FEF736F90020039004900B
:101F1000059006900290607C28287DD1A07D2C2819
:101F2000FBD1E07E2C28F8D1607F2C28F5D1657D8F
:101F3000312D01D0322D03D1A5F13000C5B205E01D
:101F40004AA001F04DFD21B0BDE8F08FA17E607E7A
:101F500002F027FA8246207F3038C7B2012F0AD11B
:101F600094F8211094F8200002F01BFA8DF88000FC
:101F700004F1230616E0022F10D120346178207876
:101F800002F00FFA8DF88000A1796079203C02F010
:101F900008FA8DF8810004F1280603E039A001F069
:101FA0001FFDD0E74FF0000B19E03078292808D149
:101FB00007A803F02DFBCDE90001FEF76DFA80467E
:101FC00010E0BBF1190F03D138A001F009FDBAE709
:101FD000307807A901F80B00761C0BF1010BBBF15F
:101FE0001E0FE2DB00BFC146002012E0C10029FA4B
:101FF00001F1C9B2C0F1030203AB43F82210C0F1F2
:10200000030103AA12F82110C0F1030202AB995494
:10201000401C0428EADB00E023E0012D10D102A8D7
:1020200020AB042239460090504601F076F818B1F2
:1020300028A001F0D5FC17E02DA001F0D1FC13E0A1
:1020400002A820AB042239460090504601F047FA1E
:1020500018B120A001F0C4FC06E025A001F0C0FCEE
:1020600002E029A001F0BCFC00BF6CE74D75737461
:102070002042652049324331204F72204932433299
:102080000D0A00004D7573742042652031283162BD
:1020900079746529204F7220322832627974657311
:1020A0002920416464726573730D0A00466C6F6188
:1020B000742056616C7565204D75737420426520DF
:1020C0004C6573736572205468616E2032350D0A59
:1020D0000000000043616C6962726174696F6E2078
:1020E0005772697465204661696C0D0A0000000032
:1020F00043616C6962726174696F6E2057726974B2
:1021000065204F4B0D0A0000656570726F6D20777A
:102110007269746520666F726D6174206572726F8A
:10212000720D0A002DE9FC4106460C4615460027B3
:1021300000200190601E402101EB4000C7B2022048
:102140002B46062239460090304600F036F810B192
:102150000120BDE8FC81022001AB02463946009017
:10216000304600F02AF808B10120F2E70020F0E73D
:10217000FFB581B004460E461D460A9F012C0CD1C6
:1021800003AB3A4601213046009500F0B8FE10B18D
:10219000012005B0F0BD0020FBE7022C0BD103AB02
:1021A0003A4601213046009501F085F808B101203A
:1021B000EFE70020EDE70020EBE7FFB581B0044634
:1021C0000E461D460A9F012C0CD103AB3A46012155
:1021D0003046009500F0A1FF10B1012005B0F0BD20
:1021E0000020FBE7022C0BD103AB3A46012130461D
:1021F000009501F074F908B10120EFE70020EDE748
:102200000020EBE737B582B004460D46012C0DD116
:1022100004A804AB012200210090284600F07DFFB5
:1022200010B1012005B030BD0020FBE7022C0CD11D
:1022300004A804AB012200210090284601F04FF9C8
:1022400008B10120EEE70020ECE70120EAE738B50D
:10225000002000900122E0210220FFF7D3FF01249B
:1022600005E0E1B26A460220FFF75CFF641C092C1E
:10227000F7DB0222E0211046FFF7C4FF012405E04E
:10228000E1B26A460220FFF74DFF641C092CF7DB20
:102290006A4601210220FFF745FF38BD2DE9FC47C2
:1022A00080460D461646681EC4B22046E11704EB70
:1022B00011710911402202EB4109E21704EB12727D
:1022C0001211A4EB0211CA1701EB5272D210921C28
:1022D00002F0FF0A2146E21704EB12721211A4EB7E
:1022E0000210C21700EB5272D210A0EBC202D7B29A
:1022F000012001AB5246494600904046FFF738FFA7
:1023000010B10120BDE8FC87012E06D10C48C05D4C
:102310009DF804100843019005E00A48C05D9DF84F
:10232000041008400190012001AB5246494600903C
:102330004046FFF742FF08B10120E3E70020E1E754
:10234000090000200100002001460846302805DB76
:10235000392803DCA0F13002D0B20EE0412805DBC1
:10236000462803DCA0F13702D0B206E0612804DB86
:10237000662802DCA0F15702D0B2704721B1026892
:1023800042F00102026004E002684FF6FE731A4058
:102390000260704701684FF6FE7211400160002133
:1023A000016041608160C1604B49884208D14A495F
:1023B0000839496841F00F01474A083A51608AE0FC
:1023C00045491431884208D143490839496841F0E8
:1023D000F001414A083A51607DE03F492831884286
:1023E00008D13D490839496841F470613A4A083AD0
:1023F000516070E038493C31884208D1364908398B
:10240000496841F47041344A083A516063E0324906
:102410005031884208D130490839496841F4702167
:102420002D4A083A516056E02B496431884208D160
:1024300029490839496841F47001274A083A51602E
:1024400049E025497831884208D12349083949684B
:1024500041F07061204A083A51603CE01F498842CF
:1024600006D1011F096841F00F01021F116032E01F
:102470001A491431884208D11849091F096841F0E6
:10248000F001164A121F116025E0144928318842D4
:1024900008D11249091F096841F470610F4A121FDF
:1024A000116018E00D493C31884208D10B49091FE1
:1024B000096841F47041094A121F11600BE0074995
:1024C0005031884207D10549091F096841F470213C
:1024D000024A121F116070470800024008040240BF
:1024E0000146486880B2704710B50022026847F67E
:1024F000F0739A430C6A8B6823430C6923434C693D
:1025000023438C692343CC6923434C6A23438C6A5D
:1025100023431A430260CB6843600B6883604B68B7
:10252000C36010BD41607047704700002DE9F04165
:102530009CB00446002600201B900027642102A8BE
:10254000FDF719FEE07A282874D1207C2C2871D15F
:10255000607D2C286ED1E07D2C286BD1E57B312D60
:1025600001D0322D03D1A5F13000C5B205E034A071
:1025700001F036FA1CB0BDE8F081217DE07C01F06D
:1025800010FF8046A07D3038C6B2012E06D1E17E14
:10259000A07E01F006FF8DF86C0013E0022E0DD135
:1025A000E17EA07E01F0FDFE8DF86C0094F8201015
:1025B000E07F01F0F6FE8DF86D0003E026A001F04B
:1025C0000FFAD7E706EB86021B32A15C06EB860208
:1025D0001A32A05C01F0E5FE0746642F03DD28A057
:1025E00001F0FEF9C6E7012D11D102A81BAB3A4656
:1025F00031460090404600F082FC18B129A001F05D
:10260000EFF91AE002A92CA001F0EAF915E002A8FE
:102610001BAB3A4631460090404600F04CFE18B1E4
:1026200020A001F0DDF908E002A923A001F0D8F90B
:1026300003E0FFE725A001F0D3F900BF9AE700000F
:102640004D7573742042652049324331204F72200A
:10265000493243320D0A00004D75737420426520E3
:102660003128316279746529204F72203228326214
:10267000797465732920416464726573730D0A006F
:1026800044617461204C656E204D75737420426501
:10269000204C6573736572205468616E2031303050
:1026A0000D0A0000454550524F4D20577269746520
:1026B000204661696C0D0A00454550524F4D20522D
:1026C0006561643A25730D0A00000000656570724B
:1026D0006F6D20777269746520666F726D6174200A
:1026E0006572726F720D0A002DE9F0439BB00446CB
:1026F00000201A9000258046642101A8FDF73BFDCB
:10270000207B28287AD1607C2C2877D1A07D2C28AA
:1027100074D1207E2C2871D1277C312F01D0322F0B
:1027200003D1A7F13000C7B205E037A001F058F996
:102730001BB0BDE8F083617D207D01F032FE814653
:10274000E07D3038C5B2012D06D1217FE07E01F059
:1027500028FE8DF8680014E0022D0ED1217FE07E66
:1027600001F01FFE8DF8680094F8211094F8200005
:1027700001F017FE8DF8690003E029A001F030F99F
:10278000D6E705EB85021C32A15C05EB85021B3206
:10279000A05C01F006FE8046002608E005EB8500FF
:1027A0001E303044205C01A98855701CC6B24645D5
:1027B000F4DB012F10D101A81AAB42462946009044
:1027C000484600F0AAFC18B11FA001F009F918E072
:1027D00022A001F005F914E001A81AAB42462946EF
:1027E0000090484600F07BFE20B117A001F0F8F8F9
:1027F00007E003E019A001F0F3F802E01CA001F0EB
:10280000EFF800BF94E700004D7573742042652017
:1028100049324331204F7220493243320D0A0000C1
:102820004D757374204265203128316279746529B1
:10283000204F7220322832627974657329204164F6
:1028400064726573730D0A00454550524F4D205711
:1028500072697465204661696C0D0A0045455052E5
:102860004F4D205772697465204F4B0D0A000000D0
:10287000656570726F6D20777269746520666F721E
:102880006D6174206572726F720D0A002DE9F0415E
:10289000024600250026002000230024002791F88E
:1028A00003C00CF00F0591F803C00CF0100CBCF144
:1028B000000F03D091F802C04CEA050591F800C062
:1028C000BCF1000F31D0146800202BE04FF0010C58
:1028D0000CFA00F3B1F800C00CEA03069E4220D1C6
:1028E00083004FF00F0C0CFA03F7BC4305FA03FC0E
:1028F0004CEA040491F803C0BCF1280F06D14FF054
:10290000010C0CFA00FCC2F814C00AE091F803C0F4
:10291000BCF1480F05D14FF0010C0CFA00FCC2F8D5
:1029200010C0401C0828D1D31460B1F800C0BCF11D
:10293000FF0F34DD546800202EE000F1080C4FF04A
:10294000010808FA0CF3B1F800C00CEA03069E4235
:1029500021D183004FF00F0C0CFA03F7BC4305FAAA
:1029600003FC4CEA040491F803C0BCF1280F05D124
:1029700000F1080C08FA0CF8C2F8148091F803C0B2
:10298000BCF1480F07D100F1080C4FF0010808FA1C
:102990000CF8C2F81080401C0828CED35460BDE863
:1029A000F0810000F0B50A46002300240021002534
:1029B00000F00046B6F1004F02D11D4EF16901E072
:1029C0001B4E7168C0F3034583B200F44016B6F5A0
:1029D000401F08D121F07061154E766826F07066B0
:1029E000134F7E6012E000F48016B6F5801F06D10A
:1029F000032606FA05F4A14341F0706106E0460D96
:102A0000360103FA06F6B14341F0706122B1460D7A
:102A1000360103FA06F6314300F00046B6F1004FE6
:102A200002D1034EF16101E0014E7160F0BD000082
:102A3000000001400246002093680B400BB10120CA
:102A400000E000207047416170470161704770B538
:102A500002460B46FF203125002113E0545C604004
:102A600008240BE000F0800626B1312686EA4006F5
:102A7000F0B201E04606300E661EF4B2002CF1DC26
:102A80004C1CE1B29942E9DB70BDF0B503460C463F
:102A9000FF213126002013E01D5C694008250BE072
:102AA00001F0800727B1312787EA4107F9B201E039
:102AB0004F06390E6F1EFDB2002DF1DC451CE8B249
:102AC000A042E9DB914201D00120F0BD0020FCE7EB
:102AD00008B5684600F074F818B105A000F080FF52
:102AE00008BDBDF800100AA000F07AFF00BFF7E7AC
:102AF0004844433330323120436F6D6D756E6963E6
:102B00006174696F6E204572726F720D0A00000069
:102B1000484443333032312049443A307825580D07
:102B20000A0000007CB5694601A800F085F804465B
:102B3000012C03D10EA000F053FF17E0022C03D1AB
:102B400013A000F04DFF11E00198FDF792FC05463F
:102B50002A460B4614A000F043FF0098FDF789FCBD
:102B600005462A460B4613A000F03AFF7CBD000044
:102B70004844433330323120436F6D6D756E696365
:102B80006174696F6E204572726F720D0A000000E9
:102B90004844433330323120474554204352432088
:102BA0004572726F720D0A0054656D703A25660D9C
:102BB0000A00000048756D693A25660D0A0000009C
:102BC0001CB5044616A00068019001A802F0E2FDC1
:102BD00008B101201CBD0321684602F0C9FD08B1FF
:102BE0000120F7E702216846FFF731FF9DF8021048
:102BF000884201D00220EDE79DF801009DF8001009
:102C000040EA01202080218806A002F05BF820889D
:102C1000B0F5405F01D00320DCE70020DAE70000D8
:102C2000378100006465766963655F6964203D20D3
:102C300025780D0A000000002DE9FE4F04460D46E0
:102C400028A00068029002A802F0A4FD10B10120A3
:102C5000BDE8FE8F0F2002F085FD0621684602F0D8
:102C600087FD08B10120F3E79DF8022002216846A4
:102C7000FFF70BFF08B10220EAE79DF805200221CB
:102C80000DF10300FFF701FF08B10220E0E79DF816
:102C900001009DF8001040EA01269DF804009DF80F
:102CA000031040EA01273046FDF7BDFB82460E497E
:102CB000FDF7D7FA81460D49FDF705FB80460C4923
:102CC000FDF7C9FA20603846FDF7ADFB814609499A
:102CD000FDF7C7FA80460549FDF7F5FA28600020A0
:102CE000B6E700002400000000002F4300FF7F47EC
:102CF000000034420000C84200BFFEE710B515498D
:102D000015A000F06DFE154913A000F069FE1449EE
:102D100011A000F065FE13A000F062FE204921A082
:102D200000F05EFE21491FA000F05AFE20491DA0C0
:102D300000F056FE1F491BA000F052FE1EA000F03E
:102D40004FFE234917A000F04BFE224915A000F0CA
:102D500047FE10BDAC59000825730000B6590008A5
:102D6000E0590008466F72206578616D706C653AB5
:102D7000494F2053455428342C626974783D782C8F
:102D800062697478783D782C6269747878783D78D7
:102D90002C6269747878783D30290D0A00000000B3
:102DA000F359000825730D0A00000000705900084F
:102DB0007D590008335900084144353636332053D5
:102DC000455428312C31303030290D0A00000000E4
:102DD0003E5900082459000810B5002000F0DAF828
:102DE00000F016F9002000F0E5F8022001F03CFAAE
:102DF000012000F0CFF8022001F036FA002000F0A8
:102E0000C9F810BD08B50121082000F05FFFC020FF
:102E1000ADF8000010208DF8030003208DF80200AB
:102E200069460248FFF732FD08BD0000000C014072
:102E300010B5002000F0AEF800F0EAF8012000F034
:102E4000B9F8022001F010FA012000F0A3F80220E6
:102E500001F00AFA002000F09DF810BD70B505469B
:102E6000002400F0C3F8002614E0002000F092F8DF
:102E7000022001F0F9F9012000F08CF86006040E40
:102E800000F0A8F808B1601CC4B2022001F0ECF90F
:102E9000701CC6B2082EE8DB15B9FFF7C9FF01E0C8
:102EA000FFF79AFF204670BD2DE9F04107460D4619
:102EB0009046464600F0BEF8791CC8B200F00BF907
:102EC00000F0E7F820B100F0CBF80120BDE8F08178
:102ED00000240EE0681EA04204D10020FFF7BEFFD0
:102EE000307004E00120FFF7B9FF3070761C601CE1
:102EF00084B2AC42EEDB00F0B3F80020E6E72DE947
:102F0000F0470746884615469946DDF820A0564604
:102F100000F090F8384600F0DEF800F0BAF820B182
:102F200000F09EF80120BDE8F08700240CE019F8BD
:102F3000040000F0D0F800F0ACF818B100F090F800
:102F40000120F0E7601C84B24445F0DB00F072F829
:102F5000791CC8B200F0BFF800F09BF818B100F07F
:102F60007FF80120DFE700240EE0681EA04204D1B4
:102F70000020FFF773FF307004E00120FFF76EFFC1
:102F80003070761C601C84B2AC42EEDB00F068F856
:102F90000020C8E710B5044624B940210448FFF7D3
:102FA00052FD03E040210248FFF74FFD10BD000035
:102FB000000C014010B5044624B980210448FFF7F5
:102FC00042FD03E080210248FFF73FFD10BD0000F5
:102FD000000C014010B580210348FFF72BFD08B914
:102FE000002010BD0120FCE7000C014008B5802046
:102FF000ADF8000048208DF8030003208DF8020092
:1030000069460248FFF742FC08BD0000000C014081
:1030100008B58020ADF8000010208DF803000320D3
:103020008DF8020069460248FFF730FC08BD000039
:10303000000C014010B5FFF7EBFF0120FFF7BAFFCE
:103040000120FFF7A7FF022001F00EF90020FFF793
:10305000B1FF022001F008F90020FFF79BFF10BD2F
:1030600010B5FFF7D5FF0020FFF794FF0020FFF712
:10307000A1FF022001F0F8F80120FFF78BFF0220EA
:1030800001F0F2F80120FFF795FF022001F0ECF8C3
:1030900010BD10B500240120FFF78CFFFFF7A6FF3D
:1030A000022001F0E1F80120FFF774FF022001F097
:1030B000DBF808E0601CC4B2022001F0D5F8322C25
:1030C00001DD012010BDFFF785FF0028F2D1FFF7D9
:1030D00061FF0020F6E770B50446FFF799FF002076
:1030E000FFF758FF002515E0E009FFF763FF6006D2
:1030F000040E022001F0B8F80120FFF74BFF022078
:1031000001F0B2F80020FFF745FF022001F0ACF813
:10311000681CC5B2082DE7DB70BD2DE9F04780467D
:103120000D4616461F46DDF82090FFF783FF404608
:10313000FFF7D1FFFFF7ADFF20B1FFF791FF0120AF
:10314000BDE8F08700240BE0385DFFF7C4FFFFF710
:10315000A0FF18B1FFF784FF0120F1E7601C84B2E3
:10316000AC42F1DB00240CE019F80400FFF7B3FFD8
:10317000FFF78FFF18B1FFF773FF0120E0E7601C36
:1031800084B2B442F0DBFFF76BFF0020D8E710B544
:10319000002000F0DBF800F01DF9002000F0E8F856
:1031A000142001F061F8012000F0D0F8142001F0A3
:1031B0005BF8002000F0CAF810BD000008B501213E
:1031C000202000F083FD4FF44060ADF80000102097
:1031D0008DF8030003208DF8020069460148FFF7CF
:1031E00055FB08BD000C014010B5002000F0AEF802
:1031F00000F0F0F8012000F0BBF8142001F034F8E2
:10320000012000F0A3F8142001F02EF8002000F0B7
:103210009DF810BD70B50546002400F0C9F80026E1
:1032200014E0002000F092F80A2001F01DF80120BF
:1032300000F08CF86006040E00F0ACF808B1601CD9
:10324000C4B20A2001F010F8701CC6B2082EE8DBE8
:1032500015B9FFF7C9FF01E0FFF799FF204670BDE0
:103260002DE9F04107460D469046464600F0C4F869
:10327000791CC8B200F011F900F0EDF820B100F0AF
:10328000D1F80120BDE8F08100240EE0681EA042C4
:1032900004D10020FFF7BEFF307004E00120FFF7EB
:1032A000B9FF3070761C601C84B2AC42EEDB00F0DB
:1032B000B9F80020E6E72DE9F047074688461546AD
:1032C0009946DDF820A0564600F096F8384600F002
:1032D000E4F800F0C0F820B100F0A4F80120BDE847
:1032E000F08700240CE019F8040000F0D6F800F094
:1032F000B2F818B100F096F80120F0E7601C84B233
:103300004445F0DB00F078F8791CC8B200F0C5F84D
:1033100000F0A1F818B100F085F80120DFE70024E3
:103320000EE0681EA04204D10020FFF773FF30704A
:1033300004E00120FFF76EFF3070761C601C84B241
:10334000AC42EEDB00F06EF80020C8E710B5044692
:103350002CB94FF480610548FFF775FB04E04FF48A
:1033600080610248FFF771FB10BD0000000C0140B6
:1033700010B504462CB94FF400610548FFF763FB14
:1033800004E04FF400610248FFF75FFB10BD00004E
:10339000000C014010B54FF400610448FFF74AFBF0
:1033A00008B9002010BD0120FCE70000000C01401E
:1033B00008B54FF40060ADF8000048208DF8030018
:1033C00003208DF8020069460148FFF75FFA08BD47
:1033D000000C014008B54FF40060ADF8000010206B
:1033E0008DF8030003208DF8020069460148FFF7BD
:1033F0004DFA08BD000C014010B5FFF7EBFF0120AE
:10340000FFF7B6FF0120FFF7A1FF142000F02CFF0B
:103410000020FFF7ADFF142000F026FF0020FFF78B
:1034200095FF10BD10B5FFF7D5FF0020FFF78EFF09
:103430000020FFF79DFF142000F016FF0120FFF78A
:1034400085FF142000F010FF0120FFF791FF1420EA
:1034500000F00AFF10BD10B500240120FFF788FF1F
:10346000FFF7A6FF142000F0FFFE0120FFF76EFF1C
:10347000142000F0F9FE08E0601CC4B2142000F033
:10348000F3FE322C01DD012010BDFFF783FF002881
:10349000F2D1FFF75BFF0020F6E770B50446FFF7B7
:1034A00099FF0020FFF752FF002515E0E009FFF724
:1034B0005FFF6006040E0A2000F0D6FE0120FFF731
:1034C00045FF142000F0D0FE0020FFF73FFF0A2048
:1034D00000F0CAFE681CC5B2082DE7DB70BD2DE9FF
:1034E000F04780460D4616461F46DDF82090FFF750
:1034F00083FF4046FFF7D1FFFFF7ADFF20B1FFF795
:1035000091FF0120BDE8F08700240BE0385DFFF754
:10351000C4FFFFF7A0FF18B1FFF784FF0120F1E718
:10352000601C84B2AC42F1DB00240CE019F804000A
:10353000FFF7B3FFFFF78FFF18B1FFF773FF01200D
:10354000E0E7601C84B2B442F0DBFFF76BFF0020C1
:10355000D8E70000F0B5C1B004464FF4807101A86F
:10356000FCF709FEE07B282851D1607C2C284ED145
:10357000A07D2C284BD1617D207D00F012FF0746F5
:10358000A17E607E00F00DFF0646207C31281BD115
:1035900001AA31463846FFF787FC18B11EA000F09B
:1035A0001FFA37E020A000F01BFA002506E001A872
:1035B000415D20A000F014FA681CC5B2B542F6DBEC
:1035C0001EA000F00DFA25E0207C32281BD101AAB4
:1035D00031463846FFF744FE18B10FA000F000FA5C
:1035E00018E011A000F0FCF9002506E001A8415DFB
:1035F00010A000F0F5F9681CC5B2B542F6DB0FA0CB
:1036000000F0EEF906E00EA000F0EAF902E013A0E7
:1036100000F0E6F941B0F0BD4932432052656164E3
:10362000204661696C0D0A0049324320526561648D
:103630003A00000030782558200000000D0A0000F4
:103640004572726F723B31284932433129206F72C3
:1036500020332849324333290D0A000049324320E0
:10366000777269746520666F726D6174206572721D
:103670006F720D0A000000002DE9F041C2B004464F
:10368000002041904FF4807101A8FCF774FD207A6E
:1036900028286ED1A07A2C287DD1E07B2C287AD1E5
:1036A000207D2C2877D1A17B607B00F07AFE8046BC
:1036B000E17CA07C00F075FE0646042E05DD38A0F6
:1036C00000F08EF942B0BDE8F08100250DE005EB79
:1036D00085021832A15C05EB85021732A05C00F070
:1036E00060FE41A94855681CC5B2B542EFDB06EB48
:1036F00086021832A15C06EB86021732A05C00F04D
:1037000050FE0746607A31281ED101A841AB3A46E7
:10371000314600904046FFF7F2FB18B128A000F0B8
:103720005FF93BE02AA000F05BF9002506E001A864
:10373000415D2AA000F054F9681CC5B2BD42F6DB19
:103740001EA000F04DF929E0607A32281FD101A8AF
:1037500041AB3A46314600904046FFF7ACFD18B108
:1037600017A000F03DF919E019A000F039F9002583
:1037700007E010E001A8415D18A000F031F9681CD5
:10378000C5B2BD42F6DB0DA000F02AF906E015A097
:1037900000F026F902E01AA000F022F900BF91E73C
:1037A00049432041646472657373206D6F726520B4
:1037B0007468616E20342062797465730D0A0000AC
:1037C0004932432052656164204661696C0D0A00EC
:1037D00049324320526561643A0000003078255830
:1037E000200000004572726F723B3128493243312C
:1037F00029206F7220332849324333290D0A0000F3
:1038000049324320777269746520666F726D617406
:10381000206572726F720D0A000000002DE9F04100
:10382000C2B0044600260020419000274FF480716A
:1038300001A8FCF7A0FCE07A2C287FD1207C2C2862
:103840007CD1607D2C2879D1A07E2C2876D1E17B9B
:10385000A07B00F0A6FD8046217DE07C00F0A1FD6C
:103860000646042E05DD38A000F0BAF842B0BDE8E7
:10387000F08100250DE005EB85021932A15C05EB16
:1038800085021832A05C00F08CFD41A94855681CE7
:10389000C5B2B542EFDB06EB86021932A15C06EB3E
:1038A00086021832A05C00F07CFD0746002513E07C
:1038B00006EB86021E3205EB85031A44A15C06EB7B
:1038C00086021D3205EB85031A44A05C00F069FDF9
:1038D00001A94855681CC5B2BD42E9DB002001A919
:1038E000C855A07A312810D101A841AB3A463146DB
:1038F00000904046FFF711FC18B11BA000F070F8D3
:103900001FE01EA000F06CF81BE0A07A322811D155
:1039100001A841AB3A46314600904046FFF7DFFD33
:1039200020B111A000F05CF80BE007E013A000F05C
:1039300057F806E015A000F053F802E01AA000F0D6
:103940004FF800BF92E7000049432041646472656C
:103950007373206D6F7265207468616E203420620D
:10396000797465730D0A00004932432057726974F7
:1039700065204661696C0D0A000000004932432051
:103980005772697465204F4B0D0A00004572726FC3
:10399000723B31284932433129206F722032284945
:1039A000324332290D0A000049324320777269748C
:1039B0006520666F726D6174206572726F720D0A98
:1039C0000000000000BFFEE770B504462046FCF78B
:1039D000E9FBC5B22946204600F0F0F870BD0000B2
:1039E0000FB42DE9F043BFB0C8210CA8FCF7C3FB0E
:1039F00000200B90282101A8FCF7BDFB47A83E90B2
:103A0000B8E04698007825280ED0469800788DF8C2
:103A10002C0000208DF82D000BA90CA8FCF7B6FB9C
:103A20004698401C4690A5E04698401C4690469813
:103A3000007866284AD006DC58287DD0632807D055
:103A400064287AD11AE073282CD07828F9D161E063
:103A50003E9810F8041BCCB23E90224651A101A81A
:103A600001F040F901A90CA8FCF790FB142101A872
:103A7000FCF781FB4698401C46907AE03E9840C88F
:103A80003E90324648A101A801F02CF901A90CA8EA
:103A9000FCF77CFB282101A8FCF76DFB4698401C35
:103AA000469066E03E9820C83E902A463FA101A875
:103AB00001F018F901A90CA8FCF768FB282101A85E
:103AC000FCF759FB4698401C469052E03E98C01DBA
:103AD00020F007003E90D0E900213E9F08371046B5
:103AE0003E97FCF7D9FC81464846FCF7C2FC0746E6
:103AF0003A460B462EA101A801F0F4F801A90CA842
:103B0000FCF744FB282101A8FCF735FB4698401C34
:103B100046902EE03E9840C83E90324625A101A82E
:103B200001F0E0F801A90CA8FCF730FB282101A85E
:103B3000FCF721FB469801E003E016E0401C4690AC
:103B400017E03E9840C83E9032461BA101A801F004
:103B5000C9F801A90CA8FCF719FB282101A8FCF75A
:103B60000AFB4698401C469003E04698401C46904D
:103B700000BF00BF4698007800287FF442AF0CA831
:103B8000FFF722FF0CA8FCF70DFB074639460CA8EF
:103B9000FCF7F1FA00203E903FB0BDE8F0035DF87D
:103BA00014FB00002563000025640000257300005D
:103BB00025660000257800002558000070B50446F1
:103BC0000E462046FCF7EEFA85B22946204601F063
:103BD0002BF870BD704710B54FF4A06000F03AF8B4
:103BE00010BD000070B5002100230F22C47804B37B
:103BF000154C246804F4E064C4F5E064210AC1F1C2
:103C00000403CA40447804FA03F184781440214341
:103C100009010E4C0678A155047804F01F05012413
:103C2000AC4005786D11AD0005F1E025C5F8004107
:103C300009E0047804F01F050124AC40044D067827
:103C4000761145F8264070BD0CED00E000E400E080
:103C500080E100E002490143024A11607047000020
:103C60000000FA050CED00E07047000029B1064A9B
:103C700052690243044B5A6104E0034A5269824389
:103C8000014B5A61704700000010024029B1064AFA
:103C9000D2690243044BDA6104E0034AD2698243E9
:103CA000014BDA61704700000010024029B1064A5A
:103CB00012690243044B1A6104E0034A1269824309
:103CC000014B1A61704700000010024029B1064AFA
:103CD00092690243044B9A6104E0034A9269824369
:103CE000014B9A61704700000010024029B1064A5A
:103CF000D2680243044BDA6004E0034AD26882438C
:103D0000014BDA60704700000010024030B500211E
:103D10000022002400232D4D6D6805F00C0121B117
:103D2000042905D0082923D105E0294D056022E0AA
:103D3000274D05601FE0254D6D6805F47012234D79
:103D40006D6805F48034022505EB92421CB9214DC3
:103D5000554305600BE01D4D6D6805F400351DB140
:103D60001C4D5543056002E0194D5543056002E0C6
:103D7000174D056000BF00BF144D6D6805F0F001E0
:103D80000909154D6B5C0568DD4045600F4D6D6898
:103D900005F4E061090A104D6B5C4568DD40856003
:103DA0000A4D6D6805F46051C90A0B4D6B5C45689E
:103DB000DD40C560054D6D6805F44041890B074D38
:103DC0006B5CC568B5FBF3F5056130BD00100240C2
:103DD00000127A0000093D00270000203700002073
:103DE00008B510208DF8030003208DF80200042090
:103DF000ADF8000069461548FEF748FD0820ADF80B
:103E0000000069461148FEF741FD1020ADF80000A2
:103E100069460E48FEF73AFD4FF48070ADF8000099
:103E200069460A48FEF732FD04210848FEF70DFEF8
:103E300008210648FEF709FE10210448FEF705FE9A
:103E40004FF480710148FEF700FE08BD00080140F4
:103E500000B587B001210420FFF738FF01210803D6
:103E6000FFF734FF18208DF81B0003208DF81A008F
:103E70002020ADF8180006A91D48FEF707FD802098
:103E8000ADF8180006A91A48FEF700FD4020ADF86D
:103E9000180004208DF81B0006A91548FEF7F6FC53
:103EA0000020ADF804004FF48270ADF80600002049
:103EB000ADF808000220ADF80A000120ADF80C00B2
:103EC0004002ADF80E003020ADF810000020ADF833
:103ED00012000720ADF8140001A9064800F0A5F96A
:103EE0000121044800F08AF9FFF77AFF07B000BD0E
:103EF000000801400030014008B510208DF8030093
:103F000003208DF802004FF48050ADF800006946A0
:103F10000448FEF7BBFC4FF480510248FEF795FDC4
:103F200008BD0000000C014000B587B00121082049
:103F3000FFF7CCFE01218803FFF7A8FE18208DF8BB
:103F40001B0003208DF81A004FF40050ADF8180044
:103F500006A91F48FEF79AFC4FF40040ADF8180080
:103F600006A91B48FEF792FC4FF48040ADF81800FC
:103F700004208DF81B0006A91548FEF787FC0020D9
:103F8000ADF804004FF48270ADF806000020ADF8E3
:103F900008000220ADF80A000120ADF80C00400234
:103FA000ADF80E000820ADF810000020ADF81200AA
:103FB0000720ADF8140001A9064800F036F90121E8
:103FC000044800F01BF9FFF797FF07B000BD0000A1
:103FD000000C01400038004070B505460C46012D2C
:103FE0000AD124B901211848FEF72DFD2BE001214B
:103FF0001548FEF72AFD26E0022D0AD124B9022138
:104000001148FEF720FD1EE002210F48FEF71DFDBE
:1040100019E0032D0AD124B901210C48FEF713FD44
:1040200011E001210948FEF710FD0CE0042D0AD132
:1040300024B969030548FEF706FD04E04FF400418A
:104040000248FEF702FD70BD000C0140000801406F
:1040500008B510208DF8030003208DF80200012020
:10406000ADF8000069461548FEF710FC0220ADF8D7
:10407000000069461148FEF709FC0120ADF8000078
:1040800069460F48FEF702FC4FF40040ADF800000F
:1040900069460B48FEF7FAFB01210848FEF7D5FCFC
:1040A00002210648FEF7D1FC01210548FEF7CDFCB0
:1040B0004FF400410248FEF7C8FC08BD000C014067
:1040C0000008014000B587B001210820FFF7FEFD80
:1040D0000121C803FFF7DAFD18208DF81B0003202B
:1040E0008DF81A000820ADF8180006A91E48FEF742
:1040F000CDFB2020ADF8180006A91B48FEF7C6FB33
:104100001020ADF8180004208DF81B0006A91648F1
:10411000FEF7BCFB0020ADF804004FF48270ADF850
:1041200006000020ADF808000220ADF80A000020CB
:10413000ADF80C004FF40070ADF80E002820ADF87B
:1041400010000020ADF812000720ADF8140001A9FE
:10415000064800F06AF80121044800F04FF8FFF724
:1041600077FF07B000BD0000000C0140003C00409C
:104170002DE9F04781460D46164600214846FFF7D7
:104180002BFF2F464FF000081BE04FF4FA643978FC
:10419000194800F048F809E0601E84B234B90121E2
:1041A0004846FFF719FF0120BDE8F08702211248B9
:1041B00000F030F80028EFD07F1C08F101001FFA52
:1041C00080F8B045E1DB4FF4FA6408E0601E84B289
:1041D0002CB901214846FFF7FFFE0120E4E78021CA
:1041E000054800F017F80028F0D101214846FFF7F4
:1041F000F3FE0020D8E70000003C004021B1028817
:1042000042F04002028004E002884FF6BF731A4079
:10421000028070470246002013890B400BB1012039
:1042200000E0002070478181704710B500220288AD
:1042300002F441520B884C8823438C882343CC885A
:1042400023430C8923434C8923438C892343CC8902
:1042500023431A430280838B4FF2FF7423408383EE
:104260000B8A038210BD7047002105E0002200E0A8
:10427000521C032AFCD3491C8142F7D3704710B566
:1042800000F002F810BD00000CB500200190009075
:104290003348006840F480303149086000BF30483E
:1042A000006800F4003000900198401C01900098D4
:1042B00018B90198B0F5A06FF1D12948006800F451
:1042C000003010B10120009001E000200090009823
:1042D000012843D12348006840F0100021490860BC
:1042E0000846006820F0030008600846006840F0B7
:1042F000020008601A48406819494860084640684A
:1043000048600846406840F480604860084640685D
:1043100020F47C1048600846406840F4E81048608B
:104320000846006840F08070086000BF0C480068D4
:1043300000F000700028F9D00948406820F0030020
:10434000074948600846406840F00200486000BFE6
:104350000348406800F00C000828F9D10CBD0000AB
:10436000001002400020024030B502460B461146C4
:104370001C46002010E00D5C612D06DB0D5C7A2DE3
:1043800003DC0D5C203D255401E00D5C2554C8285C
:1043900000D104E0451CE8B20D5C002DEBD100BF5C
:1043A00030BDF0B505460B462846FDF7CDFF044667
:1043B0001846FDF7C9FF064606EB0410C7B238469B
:1043C000F0BD042808D14FF0E021096941F0040153
:1043D0004FF0E022116107E04FF0E021096921F080
:1043E00004014FF0E02211617047704710B5134887
:1043F000006840F001001149086008464068104913
:1044000008400E494860084600680E4908400B49BC
:1044100008600846006820F480200860084640686C
:1044200020F4FE0048604FF41F008860FFF727FF6C
:104430004FF000600449086010BD00000010024009
:104440000000FFF8FFFFF6FE08ED00E038B5044677
:10445000234600220121034800940078FFF73FF82B
:10446000002038BD0000002001B56846FFF7EEFFD0
:1044700008B1012008BD0020FCE7000070B504462B
:10448000A07B282812D1E07C29280FD1A17C607C58
:10449000FFF787FF05462846FFF7E6FF18B904A097
:1044A000FFF79EFA02E007A0FFF79AFA70BD00003E
:1044B0005443413935343820537769746368204F49
:1044C0004B0D0A0054434139353438205377697411
:1044D0006368204572726F720D0A000010B500F01B
:1044E00029F909480068401C074908600846006827
:1044F0000649884202D1002003490860012104488E
:1045000000F00BF810BD000040000020A086010064
:10451000002C0140CA4302827047CA43028270479E
:1045200021B1028842F00102028004E002884FF6C5
:10453000FE731A40028070471AB183890B4383814E
:1045400002E083898B438381704700000022028848
:104550001D4B98420ED01D4B98420BD0B0F1804FAE
:1045600008D01B4B984205D01A4B984202D01A4BE8
:10457000984204D14FF68F731A404B881A43174B59
:10458000984207D0164B984204D04FF6FF431A408A
:10459000CB881A4302808B8883850B8803850A4B5E
:1045A00098420BD0094B984208D00E4B984205D048
:1045B0000D4B984202D00D4B984201D10B7A0386E5
:1045C0000123838270470000002C01400034014029
:1045D0000004004000080040000C004000100040B3
:1045E00000140040004001400044014000480140E8
:1045F0002DE9F047602300220121482000F074F8E3
:104600000021482000F022F884B22046FBF710FF7A
:104610000746074A074BFBF794FE0546FBF73CFFAE
:104620008146214604A0FFF7DBF94846BDE8F08744
:10463000378E588B4F01803F6465627567207661C5
:104640006C75653A2025640D0A00000070B50446BB
:104650000E466006040EFEF7EDFC2046FEF73BFD1D
:10466000FEF717FD3046FEF736FDFEF712FDFEF7AA
:10467000E1FC611CC8B2FEF72EFDFEF70AFD012029
:10468000FEF7ECFB0546FEF704FD2D020120FEF7C8
:10469000E5FB0543FEF7A0FBFEF7E2FC284670BDF4
:1046A0002DE9F04104462078542811D1607937284B
:1046B0000ED1607B50280BD1FFF79AFF0746384692
:1046C000FBF7D7FE05462A460B4602A0FFF788F9FE
:1046D000BDE8F08154656D702076616C75653A2097
:1046E00025660D0A000000002DE9F04107460C4642
:1046F00015461E467806070EFEF79CFC3846FEF768
:10470000EAFCFEF769FB2046FEF7E5FCFEF764FBDA
:104710002846FEF7E0FCFEF75FFB3046FEF7DBFCC9
:10472000FEF75AFBFEF79CFC012000F0A9FF0020D9
:10473000BDE8F08110B505480078012805D1034A8D
:10474000034801780348FCF7ADFC10BD440000208D
:1047500045000020640000201FB50121C802FFF7BA
:10476000B5FA19208DF80C0003208DF80D000020FB
:104770008DF80E0001208DF80F0003A8FFF732FA24
:104780006320ADF8040040F2CF20ADF80000002017
:10479000ADF80600ADF802008DF80800694608483B
:1047A000FFF7D4FE01210648FFF7B4FE01221146AF
:1047B0000348FFF7C1FE01210148FFF7B1FE1FBD0D
:1047C000002C014070B50025002440F2244120480F
:1047D00000F0C5F800283AD01D480588001D05885E
:1047E00000211C48FDF7CAFD1A48FDF779FEC0F10B
:1047F000FF0519480078B0B918490D7000BF08E0EE
:104800001748005D17490855002015490855601CD8
:1048100084B2AC42F4D3134913A000F053FA012040
:104820000D4908700BE0002404E000200C490855F5
:10483000601C84B2AC42F8D30CA000F011FAFF2146
:104840000448FDF76FFE01210248FDF797FD70BD9A
:10485000003801405800024044000020450000207C
:104860006301002064000020257300004D435520A3
:1048700069732042757379210D0A000021B1828984
:1048800042F40052828104E082894DF6FF731A409F
:10489000828170471AB1838A0B43838202E0838A44
:1048A0008B4383827047000010B504462048844241
:1048B00009D101218803FFF719FA00214FF4804044
:1048C000FFF714FA32E01B48844209D10121480461
:1048D000FFF7ECF900214FF40030FFF7E7F925E08E
:1048E0001548844209D101218804FFF7DFF900212E
:1048F0004FF48020FFF7DAF918E01048844209D11C
:104900000121C804FFF7D2F900214FF40020FFF77E
:10491000CDF90BE00A48844208D101210805FFF7D0
:10492000C5F900214FF48010FFF7C0F910BD000059
:10493000003801400044004000480040004C004066
:104940000050004002460020B1F5007F00D100BFBA
:1049500013880B400BB1012000E00020704770B5B8
:104960000246002400230025002040F66A16B142CA
:1049700000D100BFC1F3421501F01F03012606FA62
:1049800003F3012D02D19689334006E0022D02D1B6
:10499000168A334001E0968A33400C12012606FA4B
:1049A00004F41688344013B10CB1012000E000205B
:1049B00070BDF0B50346002400260025002040F617
:1049C0006A17B94200D100BF1846C1F3421401F082
:1049D0001F06012707FA06F5012C01D10C3004E06F
:1049E000022C01D1103000E014301AB107682F43B7
:1049F000076002E00768AF430760F0BD2DE9F047AC
:104A000086B005460E460024A24600BFA1460027F8
:104A1000B08900B100BF2F462C8A4CF6FF700440CD
:104A2000F08804432C82AC894EF6F3100440B08821
:104A300031890843718908430443AC81AC8A4FF63D
:104A4000FF400440B0890443AC8201A8FFF75EF93F
:104A50001F48874202D1DDF810A001E0DDF80CA06C
:104A6000A88900F4004040B10AEBCA0000EB0A102C
:104A700031684900B0FBF1F807E00AEBCA0000EB2F
:104A80000A1031688900B0FBF1F86420B8FBF0F03F
:104A900004012009642101FB1089A88900F4004069
:104AA00040B1322000EBC900B0FBF1F000F007008C
:104AB000044308E0322000EB09106421B0FBF1F060
:104AC00000F00F0004432C8106B0BDE8F087000021
:104AD00000380140C1F308028280704710B58CB0E5
:104AE000044601210846FFF7C1F80E208DF82C007E
:104AF00003208DF82D0002208DF82E0001208DF866
:104B00002F000BA8FFF76EF81348FDF743FC13487E
:104B10000090019400200290FF2003900020049058
:104B20008020059000200690079008904FF4405098
:104B3000099000200A9069460748FDF7D5FC01213D
:104B40000548FDF71BFC012240210448001FFFF728
:104B5000A1FE0CB010BD0000580002400438014016
:104B600008B501210420FFF7B1F84FF40070ADF84B
:104B7000000003208DF8020018208DF8030069461C
:104B80000748FDF783FE4FF48060ADF80000042075
:104B90008DF8030069460248FDF778FE08BD000065
:104BA0000008014010B586B0044601218803FFF7D4
:104BB0008DF81B48FFF778FEFFF7D2FF25208DF810
:104BC000040002208DF805008DF8060001208DF804
:104BD000070001A8FFF706F802940020ADF80C00CA
:104BE000ADF80E00ADF81000ADF814000C20ADF8D3
:104BF000120002A90A48FFF701FF012240F22441F6
:104C00000748FFF7D6FE01210548FFF737FE0548A4
:104C1000FFF764FF40210248FFF794FE06B010BD85
:104C200000380140630100202DE9F04104460D46A3
:104C30000026274600BF0CE017F8011B0748FFF7C6
:104C400049FF00BF40210548FFF77CFE0028F9D04E
:104C5000761CAE42F0D3BDE8F08100000038014080
:104C600070B505462C460BE014F8011B0648FFF70B
:104C700031FF00BF40210448FFF764FE0028F9D04F
:104C800020780028F0D170BD0038014000BFFEE759
:104C900008B50448044B054A0549009005A0FEF7F5
:104CA0009FFE08BD1E000020120000202B5A0008A5
:104CB0001B5A000825732025730D0A2573202573C0
:104CC0000D0A00000FB4054B10B503A9044A029861
:104CD00000F002F910BC5DF814FB0000CD5600088E
:104CE0005C0000200FB4084B10B504A902AA039879
:104CF00000F0F2F8044602A9002000F084FC2046EF
:104D000010BC5DF814FB000007560008014800685D
:104D1000704700006000002002E008C8121F08C1B0
:104D2000002AFAD170477047002001E001C1121F2C
:104D3000002AFBD17047000001490860704700005D
:104D4000600000202DE9FF5F82B00021DDE9043022
:104D5000020DDDF840B0034318D044F61050A2F223
:104D6000FF3242431514119801281FD0A5EB0B0008
:104D7000401C5FEA000A4FF000064E4FDFF8389102
:104D8000B046504615D5CAF1000413E0119801242D
:104D90004AA3012801D16FEA0B010298119AC0E9D8
:104DA0000031C0E9024206B0BDE8F09FCBF100003F
:104DB000DFE704460021404A491842EB0450CDE9A0
:104DC000001012E0E00707D032463B464046494615
:104DD000FBF7B7FA8046894632463B4610461946ED
:104DE000FBF7AFFA06460F466410002CEAD1DDE966
:104DF0000401DDE90023BAF1000F06DAFBF7A1FA9E
:104E000042464B46FBF79DFA05E0FBF746FD42465E
:104E10004B46FBF742FD04460E460022284BFBF7AB
:104E2000C3FD03D84FF0FF30014607E00022254BB9
:104E300020463146FBF78AFCFBF79EFD102409E073
:104E4000002C0ADB0A220023FBF76CFB039B3032A9
:104E50001A55641E50EA0102F2D1641C039AC4F18F
:104E600011031444119A012A03D0012208430DD1E1
:104E70000AE0084304D000204FF0110B119072E7B4
:104E8000A3EB0B056D1E0DE05B4504DD4FF000024A
:104E900005F1010504E003DA4FF00002A5F1010578
:104EA000002AECD002981199C0E90231C0E900450E
:104EB00079E70000000014400000F03F30000000DF
:104EC0000000F0430000E03F30380A2801D2012002
:104ED00070470020704700002DE9FF4F95B09B46BA
:104EE0008946064600250FE2252877D1002427466B
:104EF000F84A0121059400E0044316F8013F203BE5
:104F000001FA03F01042F7D130782A2811D06FF05F
:104F10002F033078A0F13002092A16D8059A44F000
:104F2000020402EB820203EB42021044761C05905D
:104F3000EFE759F8042B0592002A03DA504244F4B3
:104F40000054059044F00204761C30782E2816D1C7
:104F500016F8010F44F004042A280DD06FF02F0238
:104F60003078A0F13003092B09D807EB870302EB57
:104F70004303C718761CF3E759F8047B761C307896
:104F80006C280FD006DC4C2817D068280DD06A2872
:104F900014D104E0742810D07A280FD10DE044F425
:104FA00000140AE044F4801401E044F440147278E0
:104FB000824202D104F58014761C761C3078662873
:104FC0000BD013DC582877D009DC002875D0452891
:104FD000F6D04628F4D047281AD19DE118E063287E
:104FE00035D0642879D0652812D195E1702873D026
:104FF00008DC6728F1D069286FD06E280DD06F28A3
:1050000006D1B5E073282CD0752875D0782874D0D7
:105010005A46179990476D1C75E1C4F30250022857
:1050200009D003280DD0D9F8001004280DD00D6048
:1050300009F1040967E1D9F80010EA17C1E9005243
:10504000F6E7D9F800100D80F2E70D70F0E719F8D7
:10505000041B8DF8001000208DF80100EA460120A5
:1050600003E059F804AB4FF0FF3061074FF0000147
:1050700002D40DE008F101018846B9420FDA8045FB
:10508000F8DB1AF808100029F4D108E008F1010152
:1050900088468142FADB1AF808100029F6D10598F3
:1050A0005B46A0EB080721463846179A00F094FAB1
:1050B000284400EB080507E04DE029E10DE01AF86F
:1050C000010B5A4617999047B8F10108F7D25B4691
:1050D00021463846179A13E142E00A220092C4F3AF
:1050E00002524FF0000A022A08D059F804CB032AD2
:1050F0004FEAEC710AD00DE029E02AE009F107013E
:1051000021F00702F2E802C1914609E00FFA8CFC97
:105110004FEAEC71042A03D14FFA8CFC4FEAEC7190
:10512000002907DA0A460021DCF1000C61EB0201DC
:105130002D2202E0220504D52B228DF80420012225
:1051400003E0E20701D02022F7E7904659E00A2168
:1051500002E010220DE010214FF0000A00910BE058
:1051600010224FF0000A44F004040827009203E0E4
:1051700008224FF0000A0092C4F30252022A05D01E
:1051800059F804CB0021032A08D009E009F10701EE
:1051900021F00702F2E802C1914605E01FFA8CFCFB
:1051A000042A01D10CF0FF0C4FF00008220728D58B
:1051B000702806D0009B83F0100353EA0A0305D041
:1051C0000EE040228DF80420012208E05CEA010292
:1051D00006D030228DF804208DF80500022290467A
:1051E000009B83F0080353EA0A030AD15CEA010238
:1051F00001D1620705D530228DF804204FF0010857
:105200007F1E582804D034A003900EA802900DE011
:1052100036A0F9E753466046009AFBF783F98446C7
:105220000398825C0298401E029002705CEA0100C2
:10523000F0D1029806A9081A00F1200A600702D5E9
:1052400024F4803400E00127574502DDA7EB0A0073
:1052500000E0002000EB0A01009005984144401A4C
:105260000590E00306D45B462146179A059800F0A6
:10527000B3F90544002706E001A85A46C05D179916
:1052800090476D1C7F1C4745F6DBE0030CD55B4661
:105290002146179A059800F09FF9054404E0302054
:1052A0005A46179990476D1C0099481E0090002996
:1052B000F5DC08E0029802995A460078491C0291F0
:1052C000179990476D1CBAF10001AAF1010AF1DCAF
:1052D00065E10000092801003031323334353637BA
:1052E0003839616263646566000000003031323332
:1052F00034353637383941424344454600000000D2
:1053000000F058F90544761C307800287FF4ECADA5
:1053100019B02846BDE8F08F620700D4062709F1CE
:10532000070222F0070CFCE80223E14603F00048E4
:105330005FEA080C02D00FF2702C0DE05FEA045C0B
:1053400002D50FF2682C07E05FEAC47C02D00FF2AE
:10535000602C01E0AFF2700C4FF0FF3823F00043F7
:10536000CDF850C065280CD006DC452809D0462869
:105370001DD047283DD13DE0662818D067287ED152
:1053800038E00021112F01DB112000E0781CCDE96D
:10539000000106A90EA8FFF7D5FCDDE90F010E9A62
:1053A00003910021009207F1010A04914DE04FF0B2
:1053B00000400097CDE9011006A90EA8FFF7C2FC36
:1053C000DDE90F0203920E9B11990022DDF80CA07B
:1053D0000093049211B9791C00EB010AB7EB0A00A3
:1053E00004D4C0F1FF3007F1010A0490AAEB0700D2
:1053F000019044E0012F00DA01270021112F01DD87
:10540000112000E03846CDE9000106A90EA8FFF7FB
:1054100099FCDDE90F010E9A03910021049100929D
:10542000BA4621070CD40399514500DA8A46BAF1ED
:10543000010F05DD009AAAF10101515C302908D065
:10544000B84202DA10F1040F06DA0121CDE90110A9
:1054500015E0AAF10101E9E7002805DC04990144FF
:105460000491AAEB000102E0411C514500DD8A468F
:105470000499401A401C01904FF000400290200710
:1054800004D40198504501DBCDF8048000208DF84C
:105490004F0002980DF14F07B0F1004F25D02B209F
:1054A0000E9002984FF0020800280CDA4042029059
:1054B0002D200E9007E00A210298FBF71DF83031ED
:1054C000029007F8011DB8F10001A8F10108F2DC13
:1054D00002980028EFD1791E0E980870307800F0FD
:1054E000200040F0450007F8020D12A8C01B00F193
:1054F00007081498007800B1012000EB0A01019818
:1055000001EBE07105984144401A401E0590E0030C
:1055100006D45B462146179A059800F05DF80544CD
:105520001498007818B15A46179990476D1CE003FB
:1055300024D55B462146179A059800F04DF805449E
:105540001CE00498002807DBDDE90301884203DD45
:105550000098405C179901E0179930205A4690470F
:10556000049805F10105401C04900198401E01902B
:1055700004D12E205A46179990476D1CBAF10001AC
:10558000AAF1010ADDDC05E017F8010B5A4617996C
:1055900090476D1CB8F10001A8F10108F4DC5B46EE
:1055A0002146179A0598ABE62D0000002B0000005D
:1055B000200000002DE9F041044600251E46174654
:1055C000880404D405E039462020B0476D1C641ED1
:1055D000F9D52846BDE8F0812DE9F04104460025C3
:1055E0001E469046C80301D5302700E020278804D6
:1055F00004D505E041463846B0476D1C641EF9D518
:105600002846BDE8F0810A68531C0B601070704793
:1056100030B583B00446FFF779FB05460020CDE99D
:105620000000024621466846FAF7C9FF2846FFF700
:1056300083FBDDE9000103B030BD000010B56FF061
:105640000400FEF7BEFE0A4800680A49B0FBF1F00C
:10565000094908700846007800EB4001C1EBC01012
:105660004FF6FF7101EAC0000449088010BD000038
:105670004800002000127A003C0000203E0000207C
:105680000146114A12884A434FF0E0235A61002232
:105690009A611A46126942F001021A6100BF4FF086
:1056A000E022106900F001021AB100F48032002AF1
:1056B000F5D04FF0E022126922F001024FF0E02312
:1056C0001A6100229A6170473E00002070B50446BE
:1056D0000D46E1B20548FFF7FDF900BF4021034840
:1056E000FFF730F90028F9D0204670BD003801409E
:1056F00008B501213C20FEF7E9FA01210846FEF732
:10570000E5FA01211448FDF74DF90220ADF800003B
:1057100010208DF8030001208DF8020069460F4823
:10572000FDF7B4F84FF44070ADF8000010208DF88C
:10573000030001208DF8020069460948FDF7A6F82C
:105740004FF480710648FDF77EF94FF4007104486C
:10575000FDF779F908BD00000002300000080140A3
:105760000010014010B50446A0B2FFF789FF10BD3C
:1057700038B504460D4600232A46194604480094CD
:105780000078FDF7BCFB08B1012038BD0020FCE724
:105790001100002038B504460020234602460221AD
:1057A000009004480078FDF7B8FC08B1012038BD2E
:1057B0000020FCE71100002010B5044624B90221A6
:1057C0000448FDF740F903E002210248FDF73DF9E6
:1057D00010BD000000080140FEF7FDF9FFF72EFFA5
:1057E000FFF786FF4FF4E130FFF7DCF9FEF7B4FF77
:1057F000FDF708FBFDF7E2FCFCF729FD0A20FFF7A7
:105800003FFF4FF480711948FDF71FF9FEF720FBA9
:105810000A20FFF735FFFEF787FB0A20FFF730FF6E
:10582000FEF750FC6420FFF72BFFFBF73BFB10A0BB
:10583000FFF716FA19E0124800684FF47A71B0FBCE
:10584000F1F201FB120010B90020FFF7B5FF0C4880
:1058500000684FF47A71B0FBF1F201FB1200B0F571
:10586000FA7F02D10120FFF7A7FFE4E70010014013
:1058700048656C6C6F20576F726C640D0A000000F5
:1058800040000020F0B504460D4600270023002606
:1058900021462A4606E0491C581CC3B2FE2B01DDF6
:1058A0000120F0BD08780D2802D008780028F2D138
:1058B00006E0521C701CC6B2FE2E01DD0120F0E78E
:1058C00010780D2802D010780028F2D1B34212D1FE
:1058D00021462A4600270AE0087892F800C0604571
:1058E00001D00120DDE7491C521C781CC7B29F4241
:1058F000F2DB0020D5E70120D3E7F0B50346002412
:105900001D460E4600BF09E028783778B84201D01E
:105910000120F0BD6D1C761C601CC4B29442F3DB08
:105920000020F6E7544D503131372047455420547C
:105930004D500041443536363320534554004144E0
:10594000353636332052455345540D0A004932430B
:1059500020575249544500493243205245414400A2
:105960004932432044495245435420524541440062
:10597000454550524F4D20575249544500454550DA
:10598000524F4D20524541440043414C49425241FF
:1059900054494F4E2057524954450043414C4942C7
:1059A000524154494F4E20524541440056455253AE
:1059B000494F4E0D0A0048454C500D0A000D0A0093
:1059C000285E5F5E290D0A00436F6D6D616E642075
:1059D0004572726F72210D0A00534249540D0A003C
:1059E000494F205345540D0A00494F205245414428
:1059F0000D0A00524553455420414C4C20494F0D4F
:105A00000A004D50353034385F4F4E0D0A004D506E
:105A1000353034385F4F46460D0A004D494C4C5FD7
:105A2000537461725F4C696768740056312E305F41
:105A3000323032345F303332370D0A00544D50313A
:105A400031372047455420544D500D0A00544341EE
:105A50003935343820535749544348004844433378
:105A600030323120524541440D0A0048444333301E
:105A700032312049440D0A0000404040404040403F
:105A80004040414141414140404040404040404011
:105A900040404040404040404005020202020202B5
:105AA0000202020202020202022020202020202004
:105AB0002020200202020202020290909090909018
:105AC00010101010101010101010101010101010D6
:105AD000101010100202020202028888888888884A
