:020000040800F2
:10000000F88A002045010008113400085125000835
:1000100001320008330C0008D54000080000000041
:10002000000000000000000000000000013800088F
:100030002120000800000000A534000883390008D2
:100040005F0100085F0100085F0100085F01000810
:100050005F0100085F0100085F0100085F01000800
:100060005F0100085F0100085F0100085F010008F0
:100070005F0100085F0100085F0100085F010008E0
:100080005F0100085F0100085F0100085F010008D0
:100090005F0100085F0100085F0100085F010008C0
:1000A0005F010008753A00085F0100085F01000861
:1000B0005F0100085F0100085F0100085F010008A0
:1000C0005F0100085F0100085F0100085F01000890
:1000D0005F010008193C00085F0100085F0100088B
:1000E0005F0100085F0100085F0100085F01000870
:1000F0005F0100085F0100085F0100085F01000860
:100100005F0100085F0100085F0100085F0100084F
:100110005F0100085F0100085F0100085F0100083F
:100120005F0100085F0100085F0100085F0100082F
:10013000DFF80CD000F0F2FA004800474950000800
:10014000F88A00200648804706480047FEE7FEE799
:10015000FEE7FEE7FEE7FEE7FEE7FEE7FEE7FEE777
:100160008539000831010008D2B201E000F8012B06
:10017000491EFBD270470022F6E710B513460A4627
:1001800004461946FFF7F0FF204610BD421E12F844
:10019000013F002BFBD111F8013B02F8013B002B82
:1001A000F9D17047421C10F8011B0029FBD1801ABD
:1001B000704700F0004230F000400AD0C10D01F558
:1001C0006071C0F3160042EA0151C20840071143B2
:1001D000704700200146704701F0004330B421F021
:1001E000004150EA010206D00A0DA2F56072C1F387
:1001F0001301002A02DC30BC00207047440F44EA9F
:10020000C104C100E01830BC00EBC25000F096B849
:1002100030B50B46014600202022012409E021FAD6
:1002200002F59D4205D303FA02F5491B04FA02F5D3
:100230002844151EA2F10102F1DC30BD2DE9F05F6A
:100240000546002092469B46884606468146402445
:100250001BE0284641464746224600F080FA5346B6
:100260005A46C01A914110D311461846224600F052
:1002700067FA2D1A67EB01084F462246012000213C
:1002800000F05EFA17EB00094E41201EA4F10104B4
:10029000DFDC484631462A464346BDE8F09F000071
:1002A0000FB4002300B589B00CA900910B996FF031
:1002B0000042CB601E4B06931E4B07930423CDE9EF
:1002C00001321D4A089202466B46002000F00CFBEA
:1002D00009B05DF814FB70B586B006464FF0FF30EC
:1002E0000091CDE90101002015460C4604903246EC
:1002F000694604A8FFF7D4FF02460498211825B1E7
:1003000008B1084600E020462860049800280DD077
:10031000002A02DD0098884208D0081B0094CDE92D
:1003200001043246694604A8FFF7BAFF06B070BD63
:10033000210B00083F0B0008AD0700080029A8BFEB
:100340007047401C490008BF20F00100704710B4FE
:10035000B0FA80FC00FA0CF050EA010404BF10BCB3
:10036000704749B1CCF1200421FA04F411FA0CF1E0
:1003700018BF012121430843A3EB0C01CB1D4FEA19
:1003800000614FEA102042BF002010BC704700EB14
:10039000C35010440029A4BF10BC7047401C490042
:1003A00008BF20F0010010BC70472DE9FE4F8046C9
:1003B00081EA0300C00F0C46009021F0004123F0B9
:1003C0000045B8EB0200A94105D2404621469046BF
:1003D0001C460B46024623F00040104347D0270D31
:1003E000C7F30A00C3F30A510290401A0190402853
:1003F0006BDAC3F3130040F4801B0098924620B1DF
:100400000023D2EB030A63EB0B0B01985946C0F1B2
:100410004002504600F094F906460D4650465946B3
:10042000019A00F0ACF910EB08006141002487EA62
:10043000115284EAE7731A4340D0009A62B3019ADA
:10044000012A4FEA075215DC001B61EB02014FF055
:10045000004202EA0752CDE90042001C41F580113A
:1004600032462B4600F08BFB03B0BDE8F08F4046D0
:100470002146F9E7001B61EB0201001C41F58013E6
:1004800000185B412018A2F5001747EB030140EA72
:10049000D570B6196D4111E06D084FEA360645EA90
:1004A000C0754FEA0752001B61EB0201001C41F5C9
:1004B000801149084FEA30000019514132462B465D
:1004C00003B0BDE8F04F00F04BBB009801224000A4
:1004D0000023D0EB020263EBE073009821464FEA61
:1004E000E074B8EB000061EB0401E9E783F000433E
:1004F0005BE781F0004158E72DE9FE4F81EA0304F4
:1005000004F0004421F0004100944FF0000B23F070
:10051000004350EA01045ED052EA03045BD0C3F307
:100520000A54C1F30A552C44A4F2F3340194A0FBFD
:100530000254C1F3130141F48011C3F3130343F4D4
:10054000801301FB024400FB034E840A970A44EA2D
:10055000815447EA8357A4FB076802958D0A05FB7F
:1005600007854FEA932C04FB0C542705029D4FEAA4
:10057000065847EA1637B5EB08056EEB070C870EF1
:10058000920E47EA811742EA8312A7FB0201B6EBFB
:100590000B0164EB00042B0D43EA0C335E1844EBB3
:1005A0001C50DA465146E7FB0201C5F313044FEA3B
:1005B0000B3343EA14534FEA0432019C43EA060327
:1005C000A4F10C040294009CCDE900B400F0D7FA29
:1005D00003B0BDE8F08F00200146F9E72DE9F04DAA
:1005E00081EA030404F0004B21F0004514464FF06B
:1005F000000A23F0004150EA050220D054EA01022B
:100600001DD0C5F30A570246C5F31303C1F3130007
:10061000C1F30A5640F4801543F48013A7EB060893
:10062000101BD64608F2FD3873EB050002D308F123
:10063000010801E092185B41B8F1000F03DA0020D5
:100640000146BDE8F08D00204FF480110646844637
:100650000EE0171B73EB050705D3121B63EB0503B5
:1006600006434CEA010C49084FEA300092185B41FE
:1006700050EA0107EDD152EA030012D082EA0400E9
:1006800083EA0501084305D0101BAB4106D20122C5
:10069000002306E000224FF0004302E06FF0010269
:1006A00053101AEB06004CEB085110EB0A0041EB1B
:1006B0000B01BDE8F04D00F053BAC1F30A52C1F38B
:1006C000130140F2FF3341F480119A4202DA002014
:1006D0000146704740F233439A42A2F2334202DCB1
:1006E000524200F03CB800F02BB8000030B5041EB8
:1006F00071F1000404DB4FF00044404264EB01015F
:10070000141E73F1000405DB1C464FF000435242F7
:1007100063EB0403994208BF904230BD064C074D7D
:1007200006E0E06840F0010394E8070098471034C1
:10073000AC42F6D3FFF700FD3858000858580008BF
:10074000202A04DB203A00FA02F100207047914091
:10075000C2F1200320FA03F3194390407047202A86
:1007600004DB203A21FA02F00021704721FA02F35B
:10077000D040C2F120029140084319467047202A18
:1007800006DBCB17203A41FA02F043EAE07306E0B9
:1007900041FA02F3D040C2F12002914008431946C9
:1007A00070470000004870473458000810B50446F0
:1007B000FFF7F8FF0068005D00F0010010BD0000C9
:1007C0002DE9FF4F087883B09946FF2805D0491CD2
:1007D0002D2804D00024002008E000200BE0012494
:1007E000F9E700EB800003EB4000491C0B78FF2B7E
:1007F000F7D104B1404200230293147819461D46F4
:100800002D2C01D02B2C04D1521C2D2C13D00024C4
:100810000294AA461478FF2C0FD00A25A3FB057872
:1008200001FB05814FF0000C03FB0C11521CE31976
:100830004AEB0101EEE70124EAE7814453EA0100B3
:1008400002D019F5C87F06DA03980021C0E900112B
:1008500007B0BDE8F08F0025AE4E2F46DFF8B88216
:10086000184600F0DAF9CDE90001B9F1000002DA2A
:10087000C9F1000400E004460023A74A1AEB030B69
:1008800042EB045A12E0E00707D02A4633463846C6
:100890004146FFF731FE074688462A463346104652
:1008A0001946FFF729FE05460E466410002CEAD1D2
:1008B000DDE90001B9F1000F5A46534606DAFFF7A9
:1008C0008DFE3A464346FFF789FE05E0FFF714FE2A
:1008D0003A464346FFF710FE029A0AB181F0004102
:1008E000039AC2E90001B3E72DE9FF4F1F468DB01F
:1008F000D7E901464FF0FF382E2045464FF000095A
:100900000B90B9696D1C0E988847396A82468847F2
:100910000028F6D1BAF1FF3F0AD024F4D064002EAB
:1009200011DDBAF12B0F08D0BAF12D0F0BD102E077
:10093000404611B08DE744F48064B9696D1C0E988F
:1009400088478246761E6946600501D52D2000E065
:100950002B208DF8000001F1010B0DF1200809E0BA
:10096000B9696D1C0E98884782460F9844F400744C
:10097000761E0560002E02DDBAF1300FF0D00B9923
:100980008A453ED144F0800406E00F99681CA9F125
:10099000010944F400740860B9696D1C761E0E9854
:1009A000884782463028F0D02BE00B998A4505D144
:1009B000200603D444F08004761E18E0504603F06D
:1009C00055FD08B30DF11301761E44F400748B45F8
:1009D00008D2AAF130000BF8010B200607D5A9F1C7
:1009E000010003E0200602D409F101008146A005C0
:1009F00002D50F99681C0860B9696D1C0E9888476C
:100A00008246002ED1DC53E0002E51DDBAF1650F95
:100A100002D0BAF1450F4BD1A00549D5B9696D1C7B
:100A200024F44074761E0E9888478246002E0CDD12
:100A30002B2804D0BAF12D0F07D144F48074B96982
:100A40006D1C0E9888478246761EE00501D52D2143
:100A500000E02B2108F8011BCDF82C8021E00DF1DE
:100A60002901761E44F4007488450CD2AAF13000A6
:100A700010F0FF0088F8000002D10B99884509D9D1
:100A800008F1010806E0E00501D5244801E042F242
:100A90000F708146B9696D1C0E98884782460F9881
:100AA0000560002E04DD504603F0E0FC0028D6D19E
:100AB000F9690E988847FF208BF8000088F800003D
:100AC0000020069007904B466A4608A906A8FFF743
:100AD00077FEA00502D46FF001002AE714F0240F7E
:100AE0000AD0E00714D1DDE906123868031D3B6027
:100AF0000068C0E900120BE0DDE90601FFF76CFBBE
:100B00000146E00704D13868021D3A6000680160C0
:100B100028460EE7000014400000F03FF1D8FFFF28
:100B2000426842B1016811F8013B23B1521EC0E98D
:100B30000012184670470121C160881E7047426844
:100B40005AB1C368016843B983688B4205D0491E16
:100B5000521CC0E90012002070474FF0FF30704770
:100B600010B5141E73F1000408DA401C41F10001B5
:100B700092185B411A4301D120F0010010BD2DE90C
:100B8000F04D92469B4611B1B1FA81F202E0B0FA03
:100B900080F220329046FFF7D3FD04460F4640EA2C
:100BA0000A0041EA0B0153465A46084313D0114646
:100BB00053EA010019D0C8F140025046FFF7CFFDBB
:100BC00005460E46504659464246FFF7B9FD0843D2
:100BD00005D0012004E020463946BDE8F08D002014
:100BE000054346EAE0762C4337430A986305E40A56
:100BF000A0EB08000022FD0A44EA47540A3002D55F
:100C000000200146E9E7010510196941DDE90845C1
:100C100000196941BDE8F04DA2E70EB540F233423C
:100C200002920022CDE900221346FFF7A8FF03B08D
:100C300000BD00BFFEE700002DE9F74FC8B04FF43C
:100C4000807108A8FFF797FA00270020059004900C
:100C5000002680460025824603900290019008A954
:100C6000489802F04DFE08A807904898069008A9F9
:100C7000FE4804F0E1FC18B903F02EFA00F0BABE09
:100C800008A9FB4804F0D8FC0028F7D008A9F948C7
:100C900004F0D2FC10B901F05DFCEFE7062208A9D0
:100CA000F54804F004FD00287ED100240CE008A8DB
:100CB000005D622803D008A8005D422803D1059892
:100CC000401CC0B20590641C08A8FFF76BFA801E98
:100CD000A042ECD89DF82800302813DB9DF82800AE
:100CE00039280FDC9DF829002C280BD19DF828000D
:100CF00030389DF8271030390A2202FB0100C0B2BB
:100D000004900CE09DF828002C2805D19DF82700C0
:100D10003038C0B2049002E0D8A002F07FFADDE9DA
:100D200004108842AAD1002460E108A8005D42288E
:100D300003D008A8005D622846D108A9E01C085C21
:100D40003038002811D4E01C085C303809280CDC4D
:100D5000201D085C3D2808D1E01C085C3038C7B273
:100D6000601D085C3038C6B22EE008A9E01C085CA3
:100D70003038002825D4E01C085C3038092820DCF5
:100D8000201D085C303800281BD4201D085C30383A
:100D9000092816DC601D085C3D2812D1201D085C66
:100DA000303808AAE11C00E02BE1515C30390A22FE
:100DB00002FB0100C7B208A9A01D085C3038C6B20A
:100DC00002E0B3A002F02AFA122F05DB002F03DCA9
:100DD000B4A002F023FA08E1012FFCDB112FFADCAA
:100DE000122F75D2DFE807F0FC09172533414F5D5C
:100DF0006C7C8B9AA8B6C4D2E0EE012E05D10122FC
:100E00001146AC4801F09FFB04E000220121A948F3
:100E100001F099FBE8E0012E05D101220221A5484D
:100E200001F091FB04E000220221A24801F08BFBBB
:100E3000DAE0012E05D1012204219E4801F083FB56
:100E400004E0002204219B4801F07DFBCCE0012E50
:100E500005D101220821974801F075FB04E000222A
:100E60000821944801F06FFBBEE0012E05D101225C
:100E70004021904801F067FB04E0002240218D48AA
:100E800001F061FBB0E0012E05D1012280218948EB
:100E900001F059FB04E000228021864801F053FB59
:100EA000A2E0012E05D101221102824801F04BFB84
:100EB00005E000224FF480717E4801F044FB93E08E
:100EC000012E06D1012251027A4801F03CFB06E0D6
:100ED00086E000224FF40071764801F034FB83E095
:100EE000012E05D101229102724801F02CFB05E090
:100EF00000224FF480616F4801F025FB74E0012E61
:100F000005D10122D1026B4801F01DFB05E0002252
:100F10004FF40061674801F016FB65E0012E05D132
:100F200001224021644801F00EFB04E00022402130
:100F3000614801F008FB57E0012E05D10122802114
:100F40005D4801F000FB04E0002280215A4801F0D6
:100F5000FAFA49E0012E05D101221146564801F066
:100F6000F2FA04E000220121534801F0ECFA3BE0E0
:100F7000012E05D1012202214F4801F0E4FA04E0DC
:100F8000002202214C4801F0DEFA2DE0012E05D1AD
:100F900001221146494801F0D6FA04E0002201215D
:100FA000464801F0D0FA1FE0012E05D101220821A8
:100FB000414801F0C8FA04E0002208213E4801F04F
:100FC000C2FA11E0012E05D1012210213A4801F0A8
:100FD000BAFA04E000221021374801F0B4FA03E025
:100FE00037A002F01BF900BF00BF641C08A8FFF780
:100FF000D9F8801EA0423FF698AE36A002F00EF956
:101000003CE6072208A9354804F051FB002867D1C7
:101010009DF829003038002812D49DF82900303876
:1010200009280DDC9DF82A002C2809D19DF82900FB
:1010300030389DF8281030390A2202FB010911E0EE
:101040009DF82800303800280CD49DF8280030384E
:10105000092807DC9DF829002C2803D19DF82800D9
:10106000A0F13009B9F1100F3FD93AE03757000825
:1010700048570008415700086B5700086572726FA7
:101080007220636F6D6D616E6430210D0A00000087
:101090006572726F7220636F6D6D616E64210D0AEF
:1010A00000000000696F206E756D206572726F72AE
:1010B000210D0A0000100140000C01400008014011
:1010C000696F206E756D206572726F722031210D0F
:1010D0000A0000004F4B0D0A000000007457000882
:1010E00026E2F7A002F09AF8C8E5B9F1100F87D808
:1010F0000B24DDE108A8005D542803D008A8005D9A
:10110000742801D1A246D2E108A8005D2C2803D0A2
:1011100008A8005D2928F6D10394039CA4EB0A00DB
:10112000401E0290029802280ED108A90AF102007E
:10113000085C303808AA0AF10101515C303901EB32
:10114000810100EB410B0CE00298012806D108A9AF
:101150000AF10100085CA0F1300B02E0DDA002F012
:101160005DF8BBF1120F7DD2DFE80BF07C09203770
:101170004E657D94ACC4DCFBF9F8F7F6F5F401217B
:10118000D94801F0D3F90190D8A002F047F85946A8
:10119000D7A002F043F8D7A002F040F8D4A00199FC
:1011A00002F03CF8D4A002F039F87FE10221CE48E9
:1011B00001F0BCF90190CDA002F030F85946CCA066
:1011C00002F02CF8CBA002F029F8C9A0019902F096
:1011D00025F8C9A002F022F868E10421C24801F014
:1011E000A5F90190C1A002F019F85946C0A002F07B
:1011F00015F8C0A002F012F8BDA0019902F00EF897
:10120000BDA002F00BF851E10821B74801F08EF9BA
:101210000190B6A002F002F85946B5A001F0FEFF19
:10122000B4A001F0FBFFB2A0019901F0F7FFB2A05A
:1012300001F0F4FF3AE14021AB4801F077F9019069
:10124000AAA001F0EBFF5946A9A001F0E7FFA9A071
:1012500001F0E4FFA6A0019901F0E0FFA6A001F0D3
:10126000DDFF23E11EE180219F4801F05FF901903D
:101270009EA001F0D3FF59469DA001F0CFFF9DA095
:1012800001F0CCFF9AA0019901F0C8FF9AA001F0EB
:10129000C5FF0BE14FF48071934801F047F90190CD
:1012A00092A001F0BBFF594691A001F0B7FF91A0B9
:1012B00001F0B4FF8EA0019901F0B0FF8EA001F003
:1012C000ADFFF3E04FF40071874801F02FF9019072
:1012D00086A001F0A3FF594685A001F09FFF85A0DD
:1012E00001F09CFF82A0019901F098FF82A001F01B
:1012F00095FFDBE04FF480617B4801F017F9019026
:101300007AA001F08BFF594679A001F087FF79A000
:1013100001F084FF76A0019901F080FF76A001F032
:101320007DFFC3E04FF400616F4801F0FFF80190CA
:101330006EA001F073FF59466DA001F06FFF6DA024
:1013400001F06CFF6AA0019901F068FF6AA001F04A
:1013500065FFABE08FE077E05FE047E02FE017E06C
:10136000FFE74021654801F0E1F801905FA001F03E
:1013700055FF59465EA001F051FF5EA001F04EFFFF
:101380005BA0019901F04AFF5BA001F047FF8DE0EF
:1013900080215A4801F0CAF8019054A001F03EFFA4
:1013A000594653A001F03AFF52A001F037FF50A078
:1013B000019901F033FF50A001F030FF76E00121E8
:1013C0004E4801F0B3F8019048A001F027FF5946BC
:1013D00047A001F023FF47A001F020FF44A001999E
:1013E00001F01CFF44A001F019FF5FE002213E481C
:1013F00001F09CF801903DA001F010FF59463CA07F
:1014000001F00CFF3BA001F009FF39A0019901F0A8
:1014100005FF39A001F002FF48E00121384801F042
:1014200085F8019031A001F0F9FE594630A001F095
:10143000F5FE30A001F0F2FE2DA0019901F0EEFEC4
:101440002DA001F0EBFE31E008212C4801F06EF8F0
:10145000019026A001F0E2FE594625A001F0DEFE33
:1014600024A001F0DBFE22A0019901F0D7FE22A00A
:1014700001F0D4FE1AE01021204801F057F8019045
:101480001AA001F0CBFE594619A001F0C7FE19A021
:1014900001F0C4FE16A0019901F0C0FE16A001F0F3
:1014A000BDFE03E017A001F0B9FE00BF00BF641C41
:1014B000FA2CFFF61FAE1CA001F0B0FE9AE200006D
:1014C0006572726F7220636F6D6D616E6431210D94
:1014D0000A0000006572726F7220636F6D6D616E3D
:1014E0006432210D0A00000000100140626974009E
:1014F000256400003D0000000D0A0000000C0140C2
:1015000000080140426974206E756D2063616E2091
:101510006E6F7420626967676572207468616E20FF
:1015200031372121000000000D0A4F4B0D0A000049
:10153000042208A9FE4804F0BAF8002879D108A8C6
:10154000FEF730FE801F0621B0FBF1F0401CC5B253
:101550000024BCE1042000EB840008A9085C3038BA
:1015600064214843052101EB840108AA515C30390C
:1015700001EB810100EB4101062000EB8400105CCF
:101580003038084400F0FF08B8F1000F02D0B8F17D
:10159000110F04DDAFF2085001F040FE9AE1B8F1FE
:1015A000120F73D2DFE808F072091F354C62798F91
:1015B000A6BDD4F2F0EFEEEDECEB042000EB8500DD
:1015C00000EB440008A9085C3038012805D101224D
:1015D0001146D84800F0B7FF04E000220121D548A9
:1015E00000F0B1FF71E1042000EB850000EB440046
:1015F00008A9085C3038012805D101220221CD4814
:1016000000F0A1FF04E000220221CA4800F09BFF85
:101610005BE1042000EB850000EB440008A9085CB6
:101620003038012806D101220421C24800F08BFF86
:1016300005E055E100220421BE4800F084FF44E1AA
:10164000042000EB850000EB440008A9085C30385A
:10165000012805D101220821B64800F074FF04E0FA
:1016600000220821B34800F06EFF2EE1042000EBB9
:10167000850000EB440008A9085C3038012806D139
:1016800001224021AB4800F05EFF05E018E1002296
:101690004021A84800F057FF17E1042000EB850027
:1016A00000EB440008A9085C3038012805D101226C
:1016B0008021A04800F047FF04E0002280219D48DF
:1016C00000F041FF01E1042000EB850000EB440045
:1016D00008A9085C3038012805D10122010295488B
:1016E00000F031FF05E000224FF48071914800F0D6
:1016F0002AFFEAE0042000EB850000EB440008A983
:10170000085C3038012805D101224102894800F0E7
:101710001AFF05E000224FF40071864800F013FF25
:10172000D3E0042000EB850000EB440008A9085C2E
:101730003038012805D1012281027E4800F003FFE4
:1017400005E000224FF480617A4800F0FCFEBCE026
:10175000042000EB850000EB440008A9085C303849
:10176000012805D10122C102724800F0ECFE05E01B
:1017700000224FF400616F4800F0E5FEA5E089E02B
:1017800072E05BE044E02DE016E0FFE7042000EBB0
:10179000850000EB440008A9085C3038012805D119
:1017A00001224021644800F0CEFE04E000224021E6
:1017B000614800F0C8FE88E0042000EB850000EBE3
:1017C000440008A9085C3038012805D10122802195
:1017D000594800F0B8FE04E000228021564800F08D
:1017E000B2FE72E0042000EB850000EB440008A983
:1017F000085C3038012805D1012211464E4800F01E
:10180000A2FE04E0002201214B4800F09CFE5CE0B7
:10181000042000EB850000EB440008A9085C303888
:10182000012805D101220221434800F08CFE04E08A
:1018300000220221404800F086FE46E0042000EB32
:10184000850000EB440008A9085C3038012805D168
:1018500001221146394800F076FE04E00022012101
:10186000364800F070FE30E0042000EB850000EB0D
:10187000440008A9085C3038012805D1012208215C
:101880002D4800F060FE04E0002208212A4800F004
:101890005AFE1AE0042000EB850000EB440008A982
:1018A000085C3038012805D101221021224800F0BF
:1018B0004AFE04E0002210211F4800F044FE04E02C
:1018C000AFF6340001F0AAFC00BF00BF641CAC42BC
:1018D000FFF640AE00BFAFF6040001F09FFC89E0C8
:1018E0000B2208A9164803F0E2FE58BB0F2111484D
:1018F00000F025FEC0210F4800F021FE4FF44061AA
:101900000C4800F01CFEC3210B4800F018FE01211A
:101910000A4800F014FE3821074800F010FE4FF48A
:101920000071044800F00DFE4FF4806101480AE0A8
:101930006457000800100140000C014000080140FD
:101940007E57000802E000F0FCFD53E00C2208A9DD
:10195000364803F0ACFE18B9489800F041FC49E065
:101960000B2208A9324803F0A2FE18B9489800F0EB
:1019700059FB3FE0112208A92E4803F098FE18B940
:10198000489800F041F935E0102208A92A4803F0F0
:101990008EFE18B9489800F05FF82BE00E2208A9D7
:1019A000264803F084FE18B9489802F033F821E085
:1019B000092208A9224803F07AFE18B9489801F0D4
:1019C0004BFB17E0082208A91E4803F070FE18B967
:1019D000489801F06FFA0DE00F2208A91A4803F0A9
:1019E00066FE18B9489801F0D3F903E0174918A02A
:1019F00001F014FC174916A001F010FC00200BE0C8
:101A0000002207990A7006990A700799491C0791E4
:101A10000699491C0691401C49998842F0DB002137
:101A20004A9801704BB0BDE8F08F0000FB560008EB
:101A3000085700081457000826570008A457000844
:101A4000D8560008E2560008EB5600085357000825
:101A5000257300004B5700082DE9F04F87B004466E
:101A600000200690002602900390049005900190BB
:101A7000207C28287CD1607D2C2879D1A07E2C2840
:101A800076D1207F2C2873D1257D312D01D0322DA8
:101A900003D1A5F13000C5B205E038A001F0BEFBCE
:101AA00007B0BDE8F08F617E207E01F046FF8346DF
:101AB000E07E3038C6B2012E07D194F82010E07FC6
:101AC00001F03BFF8DF8180014E0022E0ED11F34F8
:101AD0006178207801F031FF8DF81800A1796079E4
:101AE0001F3C01F02AFF8DF8190003E029A001F046
:101AF00095FBD5E7012D0CD101A806AB0422314698
:101B00000090584600F02FFE80B12CA001F086FB1B
:101B1000C6E701A806AB042231460090584600F003
:101B2000E7FF18B125A001F079FBB9E7002005E037
:101B300001A9095C02AA42F82010401C0428F7DB26
:101B400002980006039900EB0140049900EB012084
:101B5000059900EB010AD1464846FEF72AFB0746E5
:101B60003A460B4600E003E01AA001F057FB02E002
:101B70001EA001F053FB00BF92E700004D75737487
:101B80002042652049324331204F7220493243328E
:101B90000D0A00004D7573742042652031283162B2
:101BA00079746529204F7220322832627974657306
:101BB0002920416464726573730D0A0043616C6986
:101BC00062726174696F6E2052656164204661695A
:101BD0006C0D0A00466C6F61742044617461205280
:101BE0006561643A25660D0A000000006565707243
:101BF0006F6D20777269746520666F726D617420F5
:101C00006572726F720D0A002DE9F04FA3B00446A1
:101C10000020209000278246642107A8FEF7ABFA37
:101C2000002003900490059006900290607C282884
:101C30007ED1A07D2C28FBD1E07E2C28F8D1607FBE
:101C40002C28F5D1657D312D01D0322D03D1A5F1A0
:101C50003000C5B205E04CA001F0E0FA23B0BDE8C9
:101C6000F08FA17E607E01F068FE2190207F3038E9
:101C7000C7B2012F0AD194F8211094F8200001F086
:101C80005CFE8DF8800004F1230616E0022F10D1CF
:101C900020346178207801F050FE8DF88000A17921
:101CA0006079203C01F049FE8DF8810004F128069E
:101CB00003E03BA001F0B2FAD0E74FF0000B1BE0CD
:101CC000307829280AD107A802F074FFCDE9000175
:101CD000FEF782FA80460BF0FF0A10E0BBF1190F05
:101CE00003D139A001F09AFAB8E7307807A901F8D2
:101CF0000B00761C0BF1010BBBF11E0FE0DB00BFEC
:101D0000C146002012E0C10029FA01F1C9B2C0F1B8
:101D1000030203AB43F82210C0F1030103AA12F837
:101D20002110C0F1030202AB9954401C042800E0CA
:101D300024E0E8DB012D10D102A820AB04223946B3
:101D40000090219800F01DFE18B129A001F066FA5C
:101D500017E02EA001F062FA13E002A820AB0422E3
:101D600039460090219800F0D8FF18B120A001F06A
:101D700055FA06E025A001F051FA02E029A001F091
:101D80004DFA00BF6AE700004D757374204265206C
:101D900049324331204F7220493243320D0A00004C
:101DA0004D7573742042652031283162797465293C
:101DB000204F722032283262797465732920416481
:101DC00064726573730D0A00466C6F61742056610E
:101DD0006C7565204D757374204265204C65737376
:101DE0006572205468616E2032350D0A00000000D3
:101DF00043616C6962726174696F6E2057726974B5
:101E000065204661696C0D0A0000000043616C6941
:101E100062726174696F6E205772697465204F4BEE
:101E20000D0A0000656570726F6D207772697465C8
:101E300020666F726D6174206572726F720D0A0098
:101E400001460846302805DB392803DCA0F13002C2
:101E5000D0B20EE0412805DB462803DCA0F13702B2
:101E6000D0B206E0612804DB662802DCA0F157024C
:101E7000D0B2704721B1026842F00102026004E072
:101E800002684FF6FE731A400260704701684FF611
:101E9000FE72114001600021016041608160C160FB
:101EA0004B49884208D14A490839496841F00F0135
:101EB000474A083A51608AE045491431884208D1BE
:101EC00043490839496841F0F001414A083A5160F4
:101ED0007DE03F492831884208D13D4908394968A9
:101EE00041F470613A4A083A516070E038493C3137
:101EF000884208D136490839496841F47041344A6A
:101F0000083A516063E032495031884208D1304983
:101F10000839496841F470212D4A083A516056E069
:101F20002B496431884208D129490839496841F46C
:101F30007001274A083A516049E0254978318842C2
:101F400008D123490839496841F07061204A083AAC
:101F500051603CE01F49884206D1011F096841F0E9
:101F60000F01021F116032E01A491431884208D172
:101F70001849091F096841F0F001164A121F116043
:101F800025E014492831884208D11249091F0968FF
:101F900041F470610F4A121F116018E00D493C3185
:101FA000884208D10B49091F096841F47041094A68
:101FB000121F11600BE007495031884207D10549D3
:101FC000091F096841F47021024A121F116070470D
:101FD00008000240080402400146486880B2704789
:101FE00010B50022026847F6F0739A430C6A8B68BA
:101FF00023430C6923434C6923438C692343CC69F5
:1020000023434C6A23438C6A23431A430260CB6800
:1020100043600B6883604B68C36010BD41607047CC
:10202000704700002DE9F0419CB0044600260020D6
:102030001B900027642102A8FEF79DF8E07A28286B
:1020400074D1207C2C2871D1607D2C286ED1E07D4C
:102050002C286BD1E57B312D01D0322D03D1A5F198
:102060003000C5B205E034A001F0D8F81CB0BDE8DE
:10207000F081217DE07C01F060FC8046A07D30385D
:10208000C6B2012E06D1E17EA07E01F056FC8DF88D
:102090006C0013E0022E0DD1E17EA07E01F04DFC1C
:1020A0008DF86C0094F82010E07F01F046FC8DF86C
:1020B0006D0003E026A001F0B1F8D7E706EB860239
:1020C0001B32A15C06EB86021A32A05C01F035FCE3
:1020D0000746642F03DD28A001F0A0F8C6E7012D14
:1020E00011D102A81BAB3A4631460090404600F0A1
:1020F0003AFB18B129A001F091F81AE002A92CA02E
:1021000001F08CF815E002A81BAB3A46314600906E
:10211000404600F0EDFC18B120A001F07FF808E087
:1021200002A923A001F07AF803E0FFE725A001F05F
:1021300075F800BF9AE700004D7573742042652062
:1021400049324331204F7220493243320D0A000098
:102150004D75737420426520312831627974652988
:10216000204F7220322832627974657329204164CD
:1021700064726573730D0A0044617461204C656E6E
:10218000204D757374204265204C65737365722011
:102190005468616E203130300D0A000045455052C0
:1021A0004F4D205772697465204661696C0D0A00B5
:1021B000454550524F4D20526561643A25730D0AD2
:1021C00000000000656570726F6D2077726974653C
:1021D00020666F726D6174206572726F720D0A00F5
:1021E0002DE9F0439BB0044600201A90002580465C
:1021F000642101A8FDF7BFFF207B28287AD1607CED
:102200002C2877D1A07D2C2874D1207E2C2871D148
:10221000277C312F01D0322F03D1A7F13000C7B274
:1022200005E037A000F0FAFF1BB0BDE8F083617D48
:10223000207D01F082FB8146E07D3038C5B2012D62
:1022400006D1217FE07E01F078FB8DF8680014E074
:10225000022D0ED1217FE07E01F06FFB8DF868002A
:1022600094F8211094F8200001F067FB8DF86900C4
:1022700003E029A000F0D2FFD6E705EB85021C326F
:10228000A15C05EB85021B32A05C01F056FB804689
:10229000002608E005EB85001E303044205C01A9D3
:1022A0008855701CC6B24645F4DB012F10D101A839
:1022B0001AAB424629460090484600F062FB18B12E
:1022C0001FA000F0ABFF18E022A000F0A7FF14E071
:1022D00001A81AAB424629460090484600F01DFD71
:1022E00020B117A000F09AFF07E003E019A000F06A
:1022F00095FF02E01CA000F091FF00BF94E70000F2
:102300004D7573742042652049324331204F72204D
:10231000493243320D0A00004D7573742042652026
:102320003128316279746529204F72203228326257
:10233000797465732920416464726573730D0A00B2
:10234000454550524F4D205772697465204661696A
:102350006C0D0A00454550524F4D20577269746507
:10236000204F4B0D0A000000656570726F6D20777D
:102370007269746520666F726D6174206572726F28
:10238000720D0A002DE9F0410246002500260020CA
:1023900000230024002791F803C00CF00F0591F8EA
:1023A00003C00CF0100CBCF1000F03D091F802C078
:1023B0004CEA050591F800C0BCF1000F31D014685B
:1023C00000202BE04FF0010C0CFA00F3B1F800C034
:1023D0000CEA03069E4220D183004FF00F0C0CFA4A
:1023E00003F7BC4305FA03FC4CEA040491F803C06C
:1023F000BCF1280F06D14FF0010C0CFA00FCC2F81A
:1024000014C00AE091F803C0BCF1480F05D14FF0A9
:10241000010C0CFA00FCC2F810C0401C0828D1D3F3
:102420001460B1F800C0BCF1FF0F34DD5468002027
:102430002EE000F1080C4FF0010808FA0CF3B1F897
:1024400000C00CEA03069E4221D183004FF00F0C1E
:102450000CFA03F7BC4305FA03FC4CEA040491F8B8
:1024600003C0BCF1280F05D100F1080C08FA0CF8E4
:10247000C2F8148091F803C0BCF1480F07D100F1F5
:10248000080C4FF0010808FA0CF8C2F81080401C44
:102490000828CED35460BDE8F0810000F0B50A46AC
:1024A000002300240021002500F00046B6F1004F73
:1024B00002D11D4EF16901E01B4E7168C0F3034566
:1024C00083B200F44016B6F5401F08D121F07061C8
:1024D000154E766826F07066134F7E6012E000F4A9
:1024E0008016B6F5801F06D1032606FA05F4A1432F
:1024F00041F0706106E0460D360103FA06F6B1437D
:1025000041F0706122B1460D360103FA06F63143FF
:1025100000F00046B6F1004F02D1034EF16101E038
:10252000014E7160F0BD0000000001400246002035
:1025300093680B400BB1012000E00020704741611F
:102540007047016170470AB1016100E04161704765
:1025500000BFFEE710B5154915A000F05FFE154954
:1025600013A000F05BFE144911A000F057FE13A069
:1025700000F054FE1C490EA000F050FE1BA000F01D
:102580004DFE29490AA000F049FE28A000F046FEB1
:10259000314932A000F042FE324930A000F03EFE48
:1025A00031492EA000F03AFE10BD00003757000858
:1025B000257300004157000864570008466F7220D9
:1025C0006578616D706C653A534249547878782C1F
:1025D0007878782C7878782C7878783D782C782CE6
:1025E000782C780D0A0000006B570008466F7220A7
:1025F0006578616D706C653A494F205345542834B5
:102600002C626974783D782C62697478783D782CF6
:102610006269747878783D782C6269747878783D4E
:1026200030290D0A0000000074570008466F722020
:102630006578616D706C653A494F20524541442878
:10264000332C626974782C62697478782C626974AE
:10265000787878290D0A00007E57000825730D0A46
:1026600000000000FB5600080857000810B50020C5
:1026700000F0C4F800F000F9002000F0CFF80220CC
:1026800001F0BFF8012000F0B9F8022001F0B9F81C
:10269000002000F0B3F810BD10B5002000F0AEF837
:1026A00000F0EAF8012000F0B9F8022001F0A9F8E2
:1026B000012000F0A3F8022001F0A3F8002000F0B0
:1026C0009DF810BD70B50546002400F0C3F8002643
:1026D00014E0002000F092F8022001F092F80120AE
:1026E00000F08CF86006040E00F0A8F808B1601C39
:1026F000C4B2022001F085F8701CC6B2082EE8DBD7
:1027000015B9FFF7C9FF01E0FFF7B0FF204670BD24
:102710002DE9F04107460D469046464600F0BEF8CA
:10272000791CC8B200F00BF900F0E7F820B100F016
:10273000CBF80120BDE8F08100240EE0681EA04225
:1027400004D10020FFF7BEFF307004E00120FFF746
:10275000B9FF3070761C601C84B2AC42EEDB00F036
:10276000B3F80020E6E72DE9F0470746884615460E
:102770009946DDF820A0564600F090F8384600F063
:10278000DEF800F0BAF820B100F09EF80120BDE8B4
:10279000F08700240CE019F8040000F0D0F800F0F5
:1027A000ACF818B100F090F80120F0E7601C84B29A
:1027B0004445F0DB00F072F8791CC8B200F0BFF8B5
:1027C00000F09BF818B100F07FF80120DFE700244B
:1027D0000EE0681EA04204D10020FFF773FF3070A6
:1027E00004E00120FFF76EFF3070761C601C84B29D
:1027F000AC42EEDB00F068F80020C8E710B50446F4
:1028000024B940210448FFF79AFE03E04021024822
:10281000FFF797FE10BD0000000C014010B5044604
:1028200024B980210448FFF78AFE03E08021024892
:10283000FFF787FE10BD0000000C014010B580219D
:102840000348FFF773FE08B9002010BD0120FCE724
:10285000000C014008B58020ADF8000048208DF83C
:10286000030003208DF8020069460248FFF78AFD45
:1028700008BD0000000C014008B58020ADF8000044
:1028800010208DF8030003208DF8020069460248ED
:10289000FFF778FD08BD0000000C014010B5FFF700
:1028A000EBFF0120FFF7BAFF0120FFF7A7FF02208F
:1028B00000F0A7FF0020FFF7B1FF022000F0A1FF0A
:1028C0000020FFF79BFF10BD10B5FFF7D5FF0020DC
:1028D000FFF794FF0020FFF7A1FF022000F091FF17
:1028E0000120FFF78BFF022000F08BFF0120FFF794
:1028F00095FF022000F085FF10BD10B500240120D7
:10290000FFF78CFFFFF7A6FF022000F07AFF0120FF
:10291000FFF774FF022000F074FF08E0601CC4B2EF
:10292000022000F06EFF322C01DD012010BDFFF708
:1029300085FF0028F2D1FFF761FF0020F6E770B5B0
:102940000446FFF799FF0020FFF758FF002515E028
:10295000E009FFF763FF6006040E022000F051FF5C
:102960000120FFF74BFF022000F04BFF0020FFF794
:1029700045FF022000F045FF681CC5B2082DE7DBCB
:1029800070BD2DE9F04780460D4616461F46DDF81E
:102990002090FFF783FF4046FFF7D1FFFFF7ADFF21
:1029A00020B1FFF791FF0120BDE8F08700240BE084
:1029B000385DFFF7C4FFFFF7A0FF18B1FFF784FFF2
:1029C0000120F1E7601C84B2AC42F1DB00240CE092
:1029D00019F80400FFF7B3FFFFF78FFF18B1FFF7F7
:1029E00073FF0120E0E7601C84B2B442F0DBFFF724
:1029F0006BFF0020D8E710B5002000F0C5F800F00C
:102A000007F9002000F0D2F8142000F0FAFE0120AF
:102A100000F0BAF8142000F0F4FE002000F0B4F842
:102A200010BD10B5002000F0AFF800F0F1F8012063
:102A300000F0BCF8142000F0E4FE012000F0A4F83F
:102A4000142000F0DEFE002000F09EF810BD70B5EE
:102A50000546002400F0CAF8002614E0002000F02B
:102A600093F80A2000F0CDFE012000F08DF86006FA
:102A7000040E00F0ADF808B1601CC4B20A2000F0EA
:102A8000C0FE701CC6B2082EE8DB15B9FFF7C9FFFF
:102A900001E0FFF7B0FF204670BD2DE9F041074689
:102AA0000D469046464600F0C5F8791CC8B200F0C5
:102AB00012F900F0EEF820B100F0D2F80120BDE8E4
:102AC000F08100240EE0681EA04204D10020FFF730
:102AD000BEFF307004E00120FFF7B9FF3070761CB4
:102AE000601C84B2AC42EEDB00F0BAF80020E6E7EE
:102AF0002DE9F0470746884615469946DDF820A09F
:102B0000564600F097F8384600F0E5F800F0C1F8B6
:102B100020B100F0A5F80120BDE8F08700240CE00A
:102B200019F8040000F0D7F800F0B3F818B100F07D
:102B300097F80120F0E7601C84B24445F0DB00F018
:102B400079F8791CC8B200F0C6F800F0A2F818B104
:102B500000F086F80120DFE700240EE0681EA042A6
:102B600004D10020FFF773FF307004E00120FFF76D
:102B70006EFF3070761C601C84B2AC42EEDB00F05D
:102B80006FF80020C8E7000010B504462CB94FF4D8
:102B900080610548FFF7D3FC04E04FF480610248F0
:102BA000FFF7CFFC10BD0000000C014010B504463B
:102BB0002CB94FF400610548FFF7C1FC04E04FF465
:102BC00000610248FFF7BDFC10BD0000000C014091
:102BD00010B54FF400610448FFF7A8FC08B90020C5
:102BE00010BD0120FCE70000000C014008B54FF4C7
:102BF0000060ADF8000048208DF8030003208DF838
:102C0000020069460148FFF7BDFB08BD000C01400A
:102C100008B54FF40060ADF8000010208DF80300F7
:102C200003208DF8020069460148FFF7ABFB08BDA1
:102C3000000C014010B5FFF7EBFF0120FFF7B6FFD6
:102C40000120FFF7A1FF142000F0DBFD0020FFF7BB
:102C5000ADFF142000F0D5FD0020FFF795FF10BD5B
:102C600010B5FFF7D5FF0020FFF78EFF0020FFF71C
:102C70009DFF142000F0C5FD0120FFF785FF142003
:102C800000F0BFFD0120FFF791FF142000F0B9FD17
:102C900010BD10B500240120FFF788FFFFF7A6FF45
:102CA000142000F0AEFD0120FFF76EFF142000F0AD
:102CB000A8FD08E0601CC4B2142000F0A2FD322C74
:102CC00001DD012010BDFFF783FF0028F2D1FFF7DF
:102CD0005BFF0020F6E770B50446FFF799FF002080
:102CE000FFF752FF002515E0E009FFF75FFF6006E0
:102CF000040E0A2000F085FD0120FFF745FF142097
:102D000000F07FFD0020FFF73FFF0A2000F079FD73
:102D1000681CC5B2082DE7DB70BD2DE9F047804681
:102D20000D4616461F46DDF82090FFF783FF40460C
:102D3000FFF7D1FFFFF7ADFF20B1FFF791FF0120B3
:102D4000BDE8F08700240BE0385DFFF7C4FFFFF714
:102D5000A0FF18B1FFF784FF0120F1E7601C84B2E7
:102D6000AC42F1DB00240CE019F80400FFF7B3FFDC
:102D7000FFF78FFF18B1FFF773FF0120E0E7601C3A
:102D800084B2B442F0DBFFF76BFF0020D8E700000D
:102D9000F0B5C1B004464FF4807101A8FDF7EBF91E
:102DA000E07B282851D1607C2C284ED1A07D2C2896
:102DB0004BD1617D207D00F0C0FD0746A17E607E85
:102DC00000F0BBFD0646207C31281BD101AA31460C
:102DD0003846FFF79DFC18B11EA000F01FFA37E03F
:102DE00020A000F01BFA002506E001A8415D20A00C
:102DF00000F014FA681CC5B2B542F6DB1EA000F064
:102E00000DFA25E0207C32281BD101AA3146384634
:102E1000FFF743FE18B10FA000F000FA18E011A070
:102E200000F0FCF9002506E001A8415D10A000F0CB
:102E3000F5F9681CC5B2B542F6DB0FA000F0EEF95B
:102E400006E00EA000F0EAF902E013A000F0E6F9B7
:102E500041B0F0BD4932432052656164204661694A
:102E60006C0D0A0049324320526561643A0000004B
:102E700030782558200000000D0A00004572726F5E
:102E8000723B31284932433129206F72203328495F
:102E9000324333290D0A00004932432077726974A6
:102EA0006520666F726D6174206572726F720D0AB3
:102EB000000000002DE9F041C2B00446002041901E
:102EC0004FF4807101A8FDF756F9207A28286ED1B9
:102ED000A07A2C287DD1E07B2C287AD1207D2C284B
:102EE00077D1A17B607B00F028FD8046E17CA07C4F
:102EF00000F023FD0646042E05DD38A000F08EF913
:102F000042B0BDE8F08100250DE005EB85021832E6
:102F1000A15C05EB85021732A05C00F00EFD41A913
:102F20004855681CC5B2B542EFDB06EB8602183285
:102F3000A15C06EB86021732A05C00F0FEFC07469F
:102F4000607A31281ED101A841AB3A463146009043
:102F50004046FFF708FC18B128A000F05FF93BE0FD
:102F60002AA000F05BF9002506E001A8415D2AA037
:102F700000F054F9681CC5B2BD42F6DB1EA000F09B
:102F80004DF929E0607A32281FD101A841AB3A46B9
:102F9000314600904046FFF7ABFD18B117A000F096
:102FA0003DF919E019A000F039F9002507E010E01B
:102FB00001A8415D18A000F031F9681CC5B2BD42FE
:102FC000F6DB0DA000F02AF906E015A000F026F9C6
:102FD00002E01AA000F022F900BF91E74943204126
:102FE000646472657373206D6F7265207468616EBE
:102FF00020342062797465730D0A00004932432041
:1030000052656164204661696C0D0A0049324320B3
:10301000526561643A0000003078255820000000B5
:103020004572726F723B31284932433129206F72E9
:1030300020332849324333290D0A00004932432006
:10304000777269746520666F726D61742065727243
:103050006F720D0A000000002DE9F041C2B0044675
:1030600000260020419000274FF4807101A8FDF751
:1030700082F8E07A2C287FD1207C2C287CD1607DBE
:103080002C2879D1A07E2C2876D1E17BA07B00F082
:1030900054FC8046217DE07C00F04FFC0646042E67
:1030A00005DD38A000F0BAF842B0BDE8F081002597
:1030B0000DE005EB85021932A15C05EB85021832A3
:1030C000A05C00F03AFC41A94855681CC5B2B54265
:1030D000EFDB06EB86021932A15C06EB86021832A2
:1030E000A05C00F02AFC0746002513E006EB8602F0
:1030F0001E3205EB85031A44A15C06EB86021D32E5
:1031000005EB85031A44A05C00F017FC01A94855A3
:10311000681CC5B2BD42E9DB002001A9C855A07AF0
:10312000312810D101A841AB3A46314600904046C3
:10313000FFF727FC18B11BA000F070F81FE01EA0DD
:1031400000F06CF81BE0A07A322811D101A841AB45
:103150003A46314600904046FFF7DFFD20B111A00E
:1031600000F05CF80BE007E013A000F057F806E071
:1031700015A000F053F802E01AA000F04FF800BFCD
:1031800092E7000049432041646472657373206DC7
:103190006F7265207468616E203420627974657383
:1031A0000D0A000049324320577269746520466158
:1031B000696C0D0A0000000049324320577269749F
:1031C00065204F4B0D0A00004572726F723B31282B
:1031D0004932433129206F72203228493243322943
:1031E0000D0A000049324320777269746520666FCA
:1031F000726D6174206572726F720D0A00000000BA
:1032000000BFFEE770B504462046FCF7CBFFC5B211
:103210002946204600F0F0F870BD00000FB42DE9FB
:10322000F043BFB0C8210CA8FCF7A5FF00200B900D
:10323000282101A8FCF79FFF47A83E90B8E04698D8
:10324000007825280ED0469800788DF82C000020B4
:103250008DF82D000BA90CA8FCF798FF4698401C90
:103260004690A5E04698401C46904698007866280F
:103270004AD006DC58287DD0632807D064287AD14C
:103280001AE073282CD07828F9D161E03E9810F824
:10329000041BCCB23E90224651A101A800F0F4FFDD
:1032A00001A90CA8FCF772FF142101A8FCF763FF29
:1032B0004698401C46907AE03E9840C83E90324680
:1032C00048A101A800F0E0FF01A90CA8FCF75EFFEF
:1032D000282101A8FCF74FFF4698401C469066E065
:1032E0003E9820C83E902A463FA101A800F0CCFF9E
:1032F00001A90CA8FCF74AFF282101A8FCF73BFF15
:103300004698401C469052E03E98C01D20F00700B1
:103310003E90D0E900213E9F083710463E97FCF7CB
:103320005BFF81464846FCF744FF07463A460B469A
:103330002EA101A800F0A8FF01A90CA8FCF726FF08
:10334000282101A8FCF717FF4698401C46902EE064
:103350003E9840C83E90324625A101A800F094FF57
:1033600001A90CA8FCF712FF282101A8FCF703FF14
:10337000469801E003E016E0401C469017E03E98B6
:1033800040C83E9032461BA101A800F07DFF01A974
:103390000CA8FCF7FBFE282101A8FCF7ECFE4698E0
:1033A000401C469003E04698401C469000BF00BF7A
:1033B0004698007800287FF442AF0CA8FFF722FF60
:1033C0000CA8FCF7EFFE074639460CA8FCF7D3FE25
:1033D00000203E903FB0BDE8F0035DF814FB000014
:1033E00025630000256400002573000025660000A9
:1033F000257800002558000070B504460E4620468A
:10340000FCF7D0FE85B22946204600F031FE70BDA3
:10341000704710B54FF4A06000F03AF810BD0000FE
:1034200070B5002100230F22C47804B3154C246822
:1034300004F4E064C4F5E064210AC1F10403CA4065
:10344000447804FA03F184781440214309010E4CB6
:103450000678A155047804F01F050124AC400578D6
:103460006D11AD0005F1E025C5F8004109E00478D3
:1034700004F01F050124AC40044D0678761145F890
:10348000264070BD0CED00E000E400E080E100E0CB
:1034900002490143024A1160704700000000FA052A
:1034A0000CED00E07047000029B1064A5269024362
:1034B000044B5A6104E0034A52698243014B5A614A
:1034C000704700000010024029B1064A1269024309
:1034D000044B1A6104E0034A12698243014B1A61EA
:1034E000704700000010024029B1064A9269024369
:1034F000044B9A6104E0034A92698243014B9A614A
:10350000704700000010024029B1064AD268024309
:10351000044BDA6004E0034AD2688243014BDA606C
:10352000704700000010024030B500210022002446
:1035300000232D4D6D6805F00C0121B1042905D043
:10354000082923D105E0294D056022E0274D0560BB
:103550001FE0254D6D6805F47012234D6D6805F46C
:103560008034022505EB92421CB9214D554305607C
:103570000BE01D4D6D6805F400351DB11C4D554324
:10358000056002E0194D5543056002E0174D0560E6
:1035900000BF00BF144D6D6805F0F0010909154D1D
:1035A0006B5C0568DD4045600F4D6D6805F4E061BA
:1035B000090A104D6B5C4568DD4085600A4D6D68F9
:1035C00005F46051C90A0B4D6B5C4568DD40C56070
:1035D000054D6D6805F44041890B074D6B5CC5686E
:1035E000B5FBF3F5056130BD0010024000127A0012
:1035F00000093D00160000202600002070B504469A
:103600000D460026012C0AD125B901030448FEF716
:1036100096FF04E04FF480510148FEF792FF70BD21
:10362000000C01402DE9F05F0546884691469A4618
:10363000E8B20021FFF7E2FFC3464F4600262FE025
:103640004FF4FA649BF80010334800F0D7F809E013
:10365000601E84B234B9E8B20121FFF7CFFF012028
:10366000BDE8F09F02212C4800F0BCF80028EFD004
:103670000BF1010B08E0601E84B22CB9E8B2012105
:10368000FFF7BCFF0120EBE70121234800F0AAF877
:103690000028F0D0204800F0AEF83870701C86B2D8
:1036A0005645CDDB00262EE04FF4FA6400211A487F
:1036B00000F0A4F808E0601E84B22CB9E8B2012141
:1036C000FFF79CFF0120CBE70221134800F08AF8A6
:1036D0000028F0D04FF4FA6408E0601E84B22CB9E0
:1036E000E8B20121FFF78AFF0120B9E701210A486A
:1036F00000F078F80028F0D0074800F07CF8387027
:103700007F1C701C86B20A988642CDDBE8B201218C
:10371000FFF774FF0020A3E7003800402DE9F05FB9
:1037200082460F4690469946DDF828B00021504663
:10373000FFF764FF3D46002619E04FF4FA6429784C
:10374000274800F05BF809E0601E84B234B901211B
:103750005046FFF753FF0120BDE8F09F02212048AB
:1037600000F040F80028EFD06D1C701C86B24E456A
:10377000E3DB4546002618E04FF4FA642978184840
:1037800000F03CF808E0601E84B22CB901215046DC
:10379000FFF734FF0120DFE70221114800F022F893
:1037A0000028F0D06D1C701C86B25E45E4DB4FF43F
:1037B000FA6408E0601E84B22CB901215046FFF77C
:1037C0001DFF0120C8E78021054800F00BF8002804
:1037D000F0D101215046FFF711FF0020BCE70000A7
:1037E000003800400246002013890B400BB1012035
:1037F00000E000207047014688897047818170474A
:103800007047002105E0002200E0521C032AFCD38F
:10381000491C8142F7D3704710B500F001F810BD84
:103820000CB50020019000903348006840F48030CF
:103830003149086000BF3048006800F40030009053
:103840000198401C0190009818B90198B0F5A06F3C
:10385000F1D12948006800F4003010B10120009037
:1038600001E0002000900098012843D1234800681F
:1038700040F01000214908600846006820F003006D
:1038800008600846006840F0020008601A48406876
:10389000194948600846406848600846406840F456
:1038A000806048600846406820F47C104860084604
:1038B000406840F4E81048600846006840F08070B6
:1038C000086000BF0C48006800F000700028F9D0C4
:1038D0000948406820F003000749486008464068EE
:1038E00040F00200486000BF0348406800F00C0050
:1038F0000828F9D10CBD0000001002400020024051
:1039000030B502460B4611461C46002010E00D5C07
:10391000612D06DB0D5C7A2D03DC0D5C203D25540A
:1039200001E00D5C2554C82800D104E0451CE8B234
:103930000D5C002DEBD100BF30BDF0B505460B4648
:103940002846FEF77DFA04461846FEF779FA064641
:1039500006EB0410C7B23846F0BD042808D14FF07A
:10396000E021096941F004014FF0E022116107E014
:103970004FF0E021096921F004014FF0E0221161CC
:103980007047704710B51348006840F001001149B6
:10399000086008464068104908400E4948600846DB
:1039A00000680E4908400B4908600846006820F48A
:1039B000802008600846406820F4FE0048604FF40C
:1039C0001F008860FFF728FF4FF00060044908607F
:1039D00010BD0000001002400000FFF8FFFFF6FEDF
:1039E00008ED00E038B504462346002201210348D3
:1039F00000940078FFF791F938BD00000000002026
:103A000001B56846FFF7EEFF08B1012008BD0020B0
:103A1000FCE7000070B50446A07B282812D1E07CAA
:103A200029280FD1A17C607CFFF787FF0546284637
:103A3000FFF7E6FF18B904A0FFF7F0FB02E007A0CC
:103A4000FFF7ECFB70BD000054434139353438209A
:103A5000537769746368204F4B0D0A005443413912
:103A600035343820537769746368204572726F72F9
:103A70000D0A000010B500F087F809480068401CE6
:103A800007490860084600680649884202D10020BC
:103A9000034908600121044800F00BF810BD000044
:103AA00030000020A0860100002C0140CA430282A1
:103AB0007047CA430282704721B1028842F0010276
:103AC000028004E002884FF6FE731A4002807047BD
:103AD0001AB183890B43838102E083898B438381FD
:103AE00070470000002202881D4B98420ED01D4BEB
:103AF00098420BD0B0F1804F08D01B4B984205D0B4
:103B00001A4B984202D01A4B984204D14FF68F7349
:103B10001A404B881A43174B984207D0164B9842CD
:103B200004D04FF6FF431A40CB881A4302808B889B
:103B300083850B8803850A4B98420BD0094B98422A
:103B400008D00E4B984205D00D4B984202D00D4B39
:103B5000984201D10B7A03860123838270470000CB
:103B6000002C0140003401400004004000080040E7
:103B7000000C0040001000400014004000400140D4
:103B8000004401400048014010B505480078012874
:103B900005D1034A034801780348FDF74DF810BDED
:103BA0003400002035000020A80000201FB50121AE
:103BB000C802FFF799FC19208DF80C0003208DF83E
:103BC0000D0000208DF80E0001208DF80F0003A8D5
:103BD000FFF726FC6320ADF8040040F2CF20ADF8DB
:103BE00000000020ADF80600ADF802008DF80800D6
:103BF00069460848FFF776FF01210648FFF756FFA0
:103C0000012211460348FFF763FF01210148FFF736
:103C100053FF1FBD002C014070B50025002440F269
:103C200024411E4800F0BFF8002836D01B48058804
:103C3000001D058800211A48FEF71CF91848FEF7F8
:103C4000CBF9C0F1FF051748007890B916490D70FF
:103C500000BF08E01548005D1549085500201349CC
:103C60000855601C84B2AC42F4D301200D490870A1
:103C70000BE0002404E000200C490855601C84B2CD
:103C8000AC42F8D30BA000F00FFAFF210448FEF776
:103C9000C5F901210248FEF7EDF870BD003801407A
:103CA000580002403400002035000020A701002009
:103CB000A80000204D435520697320427573792177
:103CC0000D0A000021B1828942F40052828104E091
:103CD00082894DF6FF731A40828170471AB1838A38
:103CE0000B43838202E0838A8B4383827047000008
:103CF00010B504462048844209D101218803FFF70A
:103D000003FC00214FF48040FFF7FEFB32E01B482C
:103D1000844209D101214804FFF7D6FB00214FF46A
:103D20000030FFF7D1FB25E01548844209D101217D
:103D30008804FFF7C9FB00214FF48020FFF7C4FB84
:103D400018E01048844209D10121C804FFF7BCFBE8
:103D500000214FF40020FFF7B7FB0BE00A48844234
:103D600008D101210805FFF7AFFB00214FF48010B7
:103D7000FFF7AAFB10BD00000038014000440040DE
:103D800000480040004C0040005000400246002027
:103D9000B1F5007F00D100BF13880B400BB10120AB
:103DA00000E00020704770B5024600240023002583
:103DB000002040F66A16B14200D100BFC1F342159F
:103DC00001F01F03012606FA03F3012D02D19689A3
:103DD000334006E0022D02D1168A334001E0968A74
:103DE00033400C12012606FA04F41688344013B14D
:103DF0000CB1012000E0002070BDF0B503460024A6
:103E000000260025002040F66A17B94200D100BF05
:103E10001846C1F3421401F01F06012707FA06F500
:103E2000012C01D10C3004E0022C01D1103000E053
:103E300014301AB107682F43076002E00768AF43E8
:103E40000760F0BD2DE9F04786B005460E46002418
:103E5000A24600BFA1460027B08900B100BF2F468F
:103E60002C8A4CF6FF700440F08804432C82AC8905
:103E70004EF6F3100440B088318908437189084335
:103E80000443AC81AC8A4FF6FF400440B089044340
:103E9000AC8201A8FFF748FB1F48874202D1DDF83A
:103EA00010A001E0DDF80CA0A88900F4004040B1AA
:103EB0000AEBCA0000EB0A1031684900B0FBF1F8C8
:103EC00007E00AEBCA0000EB0A1031688900B0FB7A
:103ED000F1F86420B8FBF0F004012009642101FB33
:103EE0001089A88900F4004040B1322000EBC900DD
:103EF000B0FBF1F000F00700044308E0322000EBD3
:103F000009106421B0FBF1F000F00F0004432C8194
:103F100006B0BDE8F087000000380140C1F3080298
:103F20008280704710B58CB0044601210846FFF727
:103F3000BBFA0E208DF82C0003208DF82D000220F6
:103F40008DF82E0001208DF82F000BA8FFF768FADE
:103F50001348FDF79BFF1348009001940020029046
:103F6000FF20039000200490802005900020069000
:103F7000079008904FF44050099000200A9069463D
:103F80000748FEF72DF801210548FDF773FF0122D0
:103F900040210448001FFFF7A1FE0CB010BD000037
:103FA000580002400438014008B501210420FFF701
:103FB0009BFA4FF40070ADF8000003208DF802006A
:103FC00018208DF8030069460748FEF7DBF94FF427
:103FD0008060ADF8000004208DF8030069460248B7
:103FE000FEF7D0F908BD00000008014010B586B00A
:103FF000044601218803FFF777FA1B48FFF778FE94
:10400000FFF7D2FF25208DF8040002208DF805006F
:104010008DF8060001208DF8070001A8FFF700FACF
:1040200002940020ADF80C00ADF80E00ADF81000C1
:10403000ADF814000C20ADF8120002A90A48FFF7F1
:1040400001FF012240F224410748FFF7D6FE01217B
:104050000548FFF737FE0548FFF764FF4021024897
:10406000FFF794FE06B010BD00380140A701002004
:104070002DE9F04104460D460026274600BF0CE01E
:1040800017F8011B0748FFF749FF00BF402105480B
:10409000FFF77CFE0028F9D0761CAE42F0D3BDE8D5
:1040A000F08100000038014070B505462C460BE059
:1040B00014F8011B0648FFF731FF00BF40210448F8
:1040C000FFF764FE0028F9D020780028F0D170BDF9
:1040D0000038014000BFFEE708B50448044B054A1C
:1040E0000549009005A0FFF799F808BD0D000020D4
:1040F000010000209D5700088D57000825732025DA
:10410000730D0A25732025730D0A000010B50024D5
:1041100000F010F804460548C07820440349C870F0
:104120000348407920440249487110BD78000020BE
:104130007200002010B507244FF400510B48FEF721
:10414000F5F908B904F0FE044FF480410748FEF782
:10415000EDF908B904F0FD044FF400410348FEF7FF
:10416000E5F908B904F0FB04204610BD0010014039
:104170007047002107E0002200E0521C42F2107359
:104180009A42FAD3491C8142F5D3704710B501F029
:1041900001F8FFF7BBFF01F09BF901F0F9F80249C4
:1041A000024801F005FA10BD540000204C00002028
:1041B00010B504462CB94FF400710548FEF7BFF95D
:1041C00004E04FF400710248FEF7BBF910BD000097
:1041D000000C01402DE9FC4104460D461646200C1A
:1041E0008DF80400200A8DF8050004F0F8008DF821
:1041F0000600F0B203232A4601A900900120FFF730
:1042000011FA07463846BDE8FC812DE9FC41044619
:104210000D461646200C8DF80400200A8DF8050086
:1042200004F0F800001DC0B28DF80600F0B20323C0
:104230002A4601A900900120FFF770FA0746384688
:10424000BDE8FC8138B50446012269462046FFF7E7
:10425000C1FF9DF8000038BD13B50446012201A935
:104260002046FFF7D2FF1CBD0FB4054B10B503A9C4
:10427000044A029800F002F910BC5DF814FB00003B
:10428000394D0008A00000200FB4084B10B504A958
:1042900002AA039800F0F2F8044602A9002000F0F8
:1042A00084FC204610BC5DF814FB0000AB4B0008FA
:1042B0000148006870470000A400002002E008C820
:1042C000121F08C1002AFAD170477047002001E090
:1042D00001C1121F002AFBD170470000014908608C
:1042E00070470000A40000202DE9FF5F82B000218C
:1042F000DDE90430020DDDF840B0034318D044F688
:104300001050A2F2FF3242431514119801281FD019
:10431000A5EB0B00401C5FEA000A4FF000064E4F71
:10432000DFF83891B046504615D5CAF1000413E0C5
:10433000119801244AA3012801D16FEA0B010298C8
:10434000119AC0E90031C0E9024206B0BDE8F09F11
:10435000CBF10000DFE704460021404A491842EB58
:104360000450CDE9001012E0E00707D032463B468A
:1043700040464946FCF7C0F88046894632463B46EF
:1043800010461946FCF7B8F806460F466410002C94
:10439000EAD1DDE90401DDE90023BAF1000F06DA14
:1043A000FCF7AAF842464B46FCF7A6F805E0FCF7F6
:1043B00015F942464B46FCF711F904460E46002219
:1043C000284BFCF793F903D84FF0FF30014607E084
:1043D0000022254B20463146FBF7E7FFFCF76DF93D
:1043E000102409E0002C0ADB0A220023FBF726FF39
:1043F000039B30321A55641E50EA0102F2D1641C4C
:10440000039AC4F111031444119A012A03D0012222
:1044100008430DD10AE0084304D000204FF0110BEF
:10442000119072E7A3EB0B056D1E0DE05B4504DDFB
:104430004FF0000205F1010504E003DA4FF000023D
:10444000A5F10105002AECD002981199C0E90231CA
:10445000C0E9004579E70000000014400000F03F8B
:10446000300000000000F0430000E03F30380A2830
:1044700001D2012070470020704700002DE9FF4F56
:1044800095B09B468946064600250FE2252877D140
:1044900000242746F84A0121059400E0044316F859
:1044A000013F203B01FA03F01042F7D130782A286F
:1044B00011D06FF02F033078A0F13002092A16D8FE
:1044C000059A44F0020402EB820203EB420210441C
:1044D000761C0590EFE759F8042B0592002A03DAC1
:1044E000504244F40054059044F00204761C3078A5
:1044F0002E2816D116F8010F44F004042A280DD0F6
:104500006FF02F023078A0F13003092B09D807EBA8
:10451000870302EB4303C718761CF3E759F8047BC3
:10452000761C30786C280FD006DC4C2817D0682811
:104530000DD06A2814D104E0742810D07A280FD145
:104540000DE044F400140AE044F4801401E044F463
:1045500040147278824202D104F58014761C761CD5
:10456000307866280BD013DC582877D009DC002877
:1045700075D04528F6D04628F4D047281AD19DE1B9
:1045800018E0632835D0642879D0652812D195E1E8
:10459000702873D008DC6728F1D069286FD06E28A6
:1045A0000DD06F2806D1B5E073282CD0752875D0B2
:1045B000782874D05A46179990476D1C75E1C4F35A
:1045C0000250022809D003280DD0D9F80010042881
:1045D0000DD00D6009F1040967E1D9F80010EA1760
:1045E000C1E90052F6E7D9F800100D80F2E70D702E
:1045F000F0E719F8041B8DF8001000208DF8010079
:10460000EA46012003E059F804AB4FF0FF306107A0
:104610004FF0000102D40DE008F101018846B942D3
:104620000FDA8045F8DB1AF808100029F4D108E009
:1046300008F1010188468142FADB1AF808100029C6
:10464000F6D105985B46A0EB080721463846179A35
:1046500000F094FA284400EB080507E04DE029E15A
:104660000DE01AF8010B5A4617999047B8F1010866
:10467000F7D25B4621463846179A13E142E00A22F8
:104680000092C4F302524FF0000A022A08D059F8EF
:1046900004CB032A4FEAEC710AD00DE029E02AE0AE
:1046A00009F1070121F00702F2E802C1914609E091
:1046B0000FFA8CFC4FEAEC71042A03D14FFA8CFC00
:1046C0004FEAEC71002907DA0A460021DCF1000C00
:1046D00061EB02012D2202E0220504D52B228DF888
:1046E0000420012203E0E20701D02022F7E79046F0
:1046F00059E00A2102E010220DE010214FF0000ADB
:1047000000910BE010224FF0000A44F00404082747
:10471000009203E008224FF0000A0092C4F3025214
:10472000022A05D059F804CB0021032A08D009E059
:1047300009F1070121F00702F2E802C1914605E004
:104740001FFA8CFC042A01D10CF0FF0C4FF000087A
:10475000220728D5702806D0009B83F0100353EA67
:104760000A0305D00EE040228DF80420012208E063
:104770005CEA010206D030228DF804208DF8050095
:1047800002229046009B83F0080353EA0A030AD1F1
:104790005CEA010201D1620705D530228DF80420C0
:1047A0004FF001087F1E582804D034A003900EA8B3
:1047B00002900DE036A0F9E753466046009AFBF7F9
:1047C0003DFD84460398825C0298401E0290027070
:1047D0005CEA0100F0D1029806A9081A00F1200A4B
:1047E000600702D524F4803400E00127574502DD3C
:1047F000A7EB0A0000E0002000EB0A0100900598FA
:104800004144401A0590E00306D45B462146179ABE
:10481000059800F0B3F90544002706E001A85A46C0
:10482000C05D179990476D1C7F1C4745F6DBE00380
:104830000CD55B462146179A059800F09FF9054470
:1048400004E030205A46179990476D1C0099481E85
:1048500000900029F5DC08E0029802995A46007899
:10486000491C0291179990476D1CBAF10001AAF1F9
:10487000010AF1DC65E10000092801003031323322
:10488000343536373839616263646566000000008C
:104890003031323334353637383941424344454676
:1048A0000000000000F058F90544761C307800281C
:1048B0007FF4ECAD19B02846BDE8F08F620700D454
:1048C000062709F1070222F0070CFCE80223E14663
:1048D00003F000485FEA080C02D00FF2702C0DE0E4
:1048E0005FEA045C02D50FF2682C07E05FEAC47C43
:1048F00002D00FF2602C01E0AFF2700C4FF0FF38E5
:1049000023F00043CDF850C065280CD006DC4528C4
:1049100009D046281DD047283DD13DE0662818D053
:1049200067287ED138E00021112F01DB112000E043
:10493000781CCDE9000106A90EA8FFF7D5FCDDE93A
:104940000F010E9A03910021009207F1010A0491D0
:104950004DE04FF000400097CDE9011006A90EA8E8
:10496000FFF7C2FCDDE90F0203920E9B11990022B2
:10497000DDF80CA00093049211B9791C00EB010A38
:10498000B7EB0A0004D4C0F1FF3007F1010A04902C
:10499000AAEB0700019044E0012F00DA0127002173
:1049A000112F01DD112000E03846CDE9000106A9F4
:1049B0000EA8FFF799FCDDE90F010E9A0391002183
:1049C00004910092BA4621070CD40399514500DAAC
:1049D0008A46BAF1010F05DD009AAAF10101515C86
:1049E000302908D0B84202DA10F1040F06DA0121AA
:1049F000CDE9011015E0AAF10101E9E7002805DC85
:104A0000049901440491AAEB000102E0411C5145C4
:104A100000DD8A460499401A401C01904FF0004086
:104A20000290200704D40198504501DBCDF80480A2
:104A300000208DF84F0002980DF14F07B0F1004FA4
:104A400025D02B200E9002984FF0020800280CDA97
:104A5000404202902D200E9007E00A210298FBF7B9
:104A6000D7FB3031029007F8011DB8F10001A8F121
:104A70000108F2DC02980028EFD1791E0E98087028
:104A8000307800F0200040F0450007F8020D12A831
:104A9000C01B00F107081498007800B1012000EB5A
:104AA0000A01019801EBE07105984144401A401E4B
:104AB0000590E00306D45B462146179A059800F05E
:104AC0005DF805441498007818B15A461799904734
:104AD0006D1CE00324D55B462146179A059800F02B
:104AE0004DF805441CE00498002807DBDDE90301CC
:104AF000884203DD0098405C179901E01799302047
:104B00005A469047049805F10105401C049001980D
:104B1000401E019004D12E205A46179990476D1CD3
:104B2000BAF10001AAF1010ADDDC05E017F8010B7A
:104B30005A46179990476D1CB8F10001A8F1010879
:104B4000F4DC5B462146179A0598ABE62D00000081
:104B50002B000000200000002DE9F0410446002554
:104B60001E461746880404D405E039462020B04785
:104B70006D1C641EF9D52846BDE8F0812DE9F04191
:104B8000044600251E469046C80301D5302700E0A4
:104B90002027880404D505E041463846B0476D1CFF
:104BA000641EF9D52846BDE8F0810A68531C0B60E5
:104BB0001070704730B583B00446FFF779FB0546A7
:104BC0000020CDE90000024621466846FBF783FB42
:104BD0002846FFF783FBDDE9000103B030BD10B5C7
:104BE00004464FF4847101EB44101021FFF734FBAD
:104BF00000BF4FF4847101EB4410FFF723FB002842
:104C0000F7D14FF4027101EB4410FF21FFF724FBB1
:104C100010BD000010B56FF00400FEF79EFE0A48BC
:104C200000680A49B0FBF1F00949087008460078AD
:104C300000EB4001C1EBC0104FF6FF7101EAC0006C
:104C40000449088010BD00003800002000127A00DE
:104C50002A0000202C00002070B500243148007884
:104C600000F0D1F8064636B1132E0DD0172E15D010
:104C70001C2E4AD144E020232B48028801212948D8
:104C8000007800F033FC40E02648007800F0BCF9E2
:104C900000202649234A1278885436E021480078BB
:104CA00000F07EF8054605F00100A0B11D4800782F
:104CB00018B90120FFF793FF02E00020FFF78FFFF4
:104CC00001211848007800F058FB0D2218491548BA
:104CD000007800F06DFA1348007800F06AF8044696
:104CE000002C0CDD224613490E48007800F0E6F94E
:104CF00000201049085521460E48FFF739FA04E014
:104D000008480078FFF76BFF00BF00BF0548007838
:104D100018B901200349087002E000200149087019
:104D200070BD00009D000020880000205C00002075
:104D300064000020F402002070B504460D46E1B284
:104D40000548FFF7EBF800BF40210348FFF71EF8C6
:104D50000028F9D0204670BD0038014010B5044647
:104D6000042221469001FFF735FA10BD01460248A2
:104D700030F8110070470000A602002010B504466C
:104D8000042221464FF47060FFF724FA10BD10B5DD
:104D90000446042221464FF4A060FFF71BFA10BD21
:104DA00010B504464FF4027101EB4410FFF74AFAC4
:104DB00010BD70B504460025002600BF42F2086110
:104DC00001EB4410FFF73EFA064642F2087101EB90
:104DD0004410FFF737FA00EB062086B27EB142F2AC
:104DE000086101EB4410FFF72DFA054642F2087105
:104DF00001EB4410FFF726FA00EB052085B2B5421F
:104E0000DCD1284670BD10B504464FF4427101EB69
:104E10004410FFF717FA10BD70B5044600250026B0
:104E200000BF42F2080101EB4410FFF70BFA0646FF
:104E300042F2081101EB4410FFF704FA00EB0620E0
:104E400086B27EB142F2080101EB4410FFF7FAF995
:104E5000054642F2081101EB4410FFF7F3F900EBAD
:104E6000052085B2B542DCD1284670BD08B50121C8
:104E70003C20FEF739FB01210846FEF735FB0121F6
:104E80005448FDF70BFB40F60200ADF8000010207F
:104E90008DF8030001208DF8020069464E48FDF7A9
:104EA00071FA4FF40070ADF8000010208DF8030087
:104EB00001208DF8020069464848FDF763FA4FF477
:104EC0006040ADF8000048208DF8030001208DF807
:104ED000020069464248FDF755FA4FF40040ADF82C
:104EE000000048208DF8030001208DF8020069467B
:104EF0003C48FDF747FA4FF48040ADF800004820E9
:104F00008DF8030001208DF8020069463548FDF751
:104F100039FA0F20ADF8000010208DF803000120B1
:104F20008DF8020069462E48FDF72CFA4FF41C60FC
:104F3000ADF8000010208DF8030001208DF802006C
:104F400069462748FDF71EFA4FF4C060ADF800002F
:104F500010208DF8030001208DF8020069462048DA
:104F6000FDF710FA4FF400711D48FDF7EAFA4FF40F
:104F700080611B48FDF7E5FAC320ADF80000102062
:104F80008DF8030001208DF8020069461348FDF7F3
:104F9000F9F90120ADF8000010208DF80300012080
:104FA0008DF8020069460C48FDF7ECF93820ADF8A1
:104FB000000010208DF8030001208DF802006946E2
:104FC0000648FDF7DFF94FF400610348FDF7B9FA31
:104FD00008BD00000002300000080140000C014044
:104FE000001001400014014010B5044624B902210C
:104FF0000448FDF7A4FA03E002210248FDF7A1FAF4
:1050000010BD00000008014070B504464FF4427125
:1050100001EB4410FFF716F9132811D14FF48471F6
:1050200001EB44100221FFF717F900BF4FF4847120
:1050300001EB4410FFF706F90028F7D1012500E045
:105040000025284670BD0000FEF7E3F9FFF7E2FDFA
:10505000FFF70CFF4FF4E130FEF7C8FFFEF7A6FDA7
:10506000FFF794F810A0FFF71FF81BE0FFF7F4FD1F
:10507000114800684FF47A71B0FBF1F201FB1200A5
:1050800010B90020FFF7B0FF0B4800684FF47A71A9
:10509000B0FBF1F201FB1200B0F5FA7F02D1012062
:1050A000FFF7A2FFE2E7000048656C6C6F20576FC6
:1050B000726C640D0A000000300000202DE9F04100
:1050C00004460E4615460027002D15DD2A463146BA
:1050D000204600F015F84FF4847101EB4410402194
:1050E000FFF7BAF800BF4FF4847101EB4410FFF7EB
:1050F000A9F80028F7D12F463846BDE8F081000016
:105100002DE9F04104460F4616460025A8462EB963
:10511000214618A0FFF7A8F8BDE8F08142F6080183
:1051200001EB4410FFF78EF8054642F6081101EB3B
:105130004410FFF787F800EB052085B2280200EB4A
:10514000441000F11808324639464046FFF742F84D
:10515000A81985B2290A42F6080202EB4410FFF7AB
:105160007BF8E9B242F6081202EB4410FFF774F83C
:1051700000BFD1E72043483A20256420556E65786A
:1051800070656374656432206C656E677468203086
:105190000D0A000010B50020FFF70AF86420FEF7A2
:1051A000E8FF0120FFF704F86420FEF7E2FF10BDDE
:1051B0002DE9F04704468846164600250027A946F3
:1051C0002046FFF7D3FDB04204DA2046FFF7CEFDBC
:1051D000074600E0374600BF2046FFF71DFE814628
:1051E0004FF4427101EB4410FFF72CF80546172DE0
:1051F00003D01C2D01D0002701E0B945ECDB00BF36
:105200003A464146204600F04BF84FF4847101EBDA
:1052100044102021FFF720F800BF4FF4847101EB08
:105220004410FFF70FF80028F7D113E04FF4427154
:1052300001EB4410FFF706F80546172D0AD01C2D88
:1052400008D011A0FFF710F82046FFF7C8FC002097
:10525000BDE8F0874FF4027101EB4410FEF7F2FF56
:1052600000F010001028E1D14FF4027101EB44105E
:105270001021FEF7F1FF4FF4027101EB44101021F1
:10528000FEF7EAFF3846E3E72053454E445F4F4BB5
:105290002050726F626C656D21210D0A00000000C4
:1052A0002DE9F04104460F4616460025A8462EB9C2
:1052B000214618A0FEF7D8FFBDE8F08142F2084170
:1052C00001EB4410FEF7BEFF054642F2085101EB28
:1052D0004410FEF7B7FF00EB052085B2280200EB73
:1052E000441000F11008324639464046FEF78DFF63
:1052F000A81985B2290A42F2084202EB4410FEF7CF
:10530000ABFFE9B242F2085202EB4410FEF7A4FFF1
:1053100000BFD1E72043483A20256420556E6578C8
:1053200070656374656431206C656E6774682030E5
:105330000D0A000010B50446042221469001FEF734
:1053400064FF10BD10B50446062221464FF41060DC
:10535000FEF75BFF10BD10B50446042221464FF452
:105360007060FEF752FF10BD10B5044604222146BE
:105370004FF4A060FEF749FF10BD70B504460D461E
:105380004FF4027101EB44102946FEF765FF70BD32
:1053900008B52A482A490A68026089888180294913
:1053A0000968C0F8061028490968C0F80A1027499A
:1053B0000968C0F80E1026490968C0F812100120CB
:1053C0001E49887600211D48C1760A30FFF7CCFFC0
:1053D0001A480E30FFF7AEFF1848801DFFF7BBFFDD
:1053E0001848FFF7CBFC1748C07800901548837821
:1053F0004278017817A0FEF737FF1348FFF7C7FC84
:105400001148C0780090104883784278017819A03C
:10541000FEF72AFF0D48FFF7A1FC0C48C07800906A
:105420000A488378427801781AA0FEF71DFF2148C8
:10543000018821A0FEF718FF08BD0000C602002069
:1054400072000020780000207C00002080000020F6
:1054500084000020573535303020495020416464A5
:10546000726573733A2025642E25642E25642E25DB
:10547000640D0A005735353030205375626E6574FF
:10548000202020203A2025642E25642E25642E25F8
:10549000640D0A00573535303020476174776179E3
:1054A000202020203A2025642E25642E25642E25D8
:1054B000640D0A00880000205735353030205072C6
:1054C0006F742020202020203A2025640D0A00003F
:1054D00010B5044804490A68026089888180FFF792
:1054E00031FF10BDC6020020720000202DE9F041FE
:1054F00004460D461646984605F00F0001280FD0C9
:1055000005F00F0002280BD005F00F00032807D08C
:1055100005F00F00042803D005F00F00052841D145
:105520002046FFF75CFB45EA0801082202EB441025
:10553000FEF792FE76B1310A4FF4816202EB44101D
:10554000FEF78AFEF1B24FF4A16202EB4410FEF7BF
:1055500083FE15E015480088401C144908800A465F
:105560001288110A4FF4816202EB4410FEF774FEB8
:105570000E4A11784FF4A16202EB4410FEF76CFE64
:105580004FF4847101EB44100121FEF765FE00BF6A
:105590004FF4847101EB4410FEF754FE0028F7D15C
:1055A000012700E000273846BDE8F0818800002090
:1055B0002DE9F04105460E460027B846002433E0A9
:1055C000295D41F6087202EB4410FEF745FE315D9D
:1055D00041F6086202EB4410FEF73EFE002014493B
:1055E00021F81400134921F81400B7F5804F07DCA7
:1055F000285D4FF6FF7101EA80200D4921F8140063
:10560000B8F5804F07DC305D4FF6FF7101EA80206E
:10561000084921F81400064830F8140007440548EA
:1056200030F814008044641C022CC9DBBDE8F08112
:10563000A6020020B6020020F0B504460D46002761
:105640000023002621462A4606E0491C581CC3B206
:10565000FE2B01DD0120F0BD08780D2802D008786E
:105660000028F2D106E0521C701CC6B2FE2E01DDED
:105670000120F0E710780D2802D010780028F2D130
:10568000B34212D121462A4600270AE0087892F850
:1056900000C0604501D00120DDE7491C521C781C88
:1056A000C7B29F42F2DB0020D5E70120D3E7F0B577
:1056B000034600241D460E4600BF09E028783778CF
:1056C000B84201D00120F0BD6D1C761C601CC4B234
:1056D0009442F3DB0020F6E7493243205752495405
:1056E0004500493243205245414400493243204459
:1056F0004952454354205245414400454550524F7C
:105700004D20575249544500454550524F4D205267
:105710004541440043414C4942524154494F4E2077
:1057200057524954450043414C4942524154494F14
:105730004E20524541440056455253494F4E0D0AA2
:105740000048454C500D0A000D0A00285E5F5E2996
:105750000D0A00436F6D6D616E64204572726F7249
:10576000210D0A00534249540D0A00494F20534568
:10577000540D0A00494F20524541440D0A0052453C
:1057800053455420414C4C20494F0D0A00456E733F
:105790006F5F4D325F46475F504342410056322EA5
:1057A000300D0A0054434139353438205357495499
:1057B000434800004040404040404040404141415B
:1057C00041414040404040404040404040404040D7
:1057D00040404040050202020202020202020202AE
:1057E000020202022020202020202020202002026D
:1057F00002020202029090909090901010101010EF
:1058000010101010101010101010101010101002A6
:105810000202020202888888888888080808080826
:1058200008080808080808080808080808080802FE
:1058300002020240B4570008585800080000002037
:10584000A8000000BC42000800590008A800002081
:10585000508A0000CC420008E046656220203320D8
:10586000323032330031303A31333A3330000000D5
:1058700000000102030401020304060708090204F0
:10588000060800000000000000000000000000000A
:1058900000A24A040000000000000000010203040E
:1058A00006070809020202020202020202020202C2
:1058B00002020202000000000000000048656C6C5B
:1058C0006F20576F726C640D0A000008DC11111113
:1058D000A9FE015CFFFFFF00A9FE01017272727256
:1058E000901FA9FE01A0401F000000000000000062
:1058F00000000000000000000000000000000000A8
:0400000508000131BD
:00000001FF
